:020000040800F2
:1040000000500020614100081BAB000823AB0008F2
:1040100021AB00081FAB00081DAB0008000000002A
:1040200000000000000000000000000081AB00085C
:1040300019AB00080000000031AB0008E5AA000839
:10404000A9410008A9410008A9410008A9410008A8
:10405000A9410008A9410008A9410008A941000898
:10406000A9410008A9410008A9410008D9AA0008EF
:10407000A9410008A9410008A9410008A941000878
:1040800039A100082DA1000839A90008A94100089C
:10409000A9410008A9410008A9410008A941000858
:1040A000A94100082DA90008A9410008A94100085C
:1040B00015A9000821A90008A941000875A2000857
:1040C00045A10008A9410008A9410008A94100082C
:1040D000A9410008A9410008A9410008A941000818
:1040E000A9410008A9410008A941000800000000FA
:1040F00000000000000000000000000000000000C0
:0C41000000000000000000005FF8E0F18B
:1041100010B5054C237833B9044B13B10448AFF301
:1041200000800123237010BDB001002000000000BA
:10413000D8AC000808B5034B1BB103490348AFF3E3
:10414000008008BD00000000B4010020D8AC0008C9
:10415000034613F8012B002AFBD1181A01387047C7
:10416000002103E00B4B5B58435004310A480B4BD2
:1041700042189A42F6D30A4A02E00023136004323E
:10418000084B9A42F9D305F0ABFF06F06BFD05F042
:1041900053F8FEE718C1000800000020AC01002021
:1041A000B001002040410020FEE700000A4B1B68E0
:1041B000013308D04FF0500383F31188BFF36F8FA2
:1041C000BFF34F8FFEE74FF0500383F31188BFF327
:1041D0006F8FBFF34F8FFEE7A8010020144B10B57F
:1041E000DB68C3F30223C3F107041A1D042C28BFA4
:1041F0000424062A88BFDA1E4FF0FF3398BF00223E
:10420000A34021EA0303002803FA02F3A8BF00F148
:1042100060404FEA0313B8BF064ADBB2B5BF00F0F7
:104220000F0000F56140135480F8003310BD00BF4B
:1042300000ED00E014ED00E0214B30B519464CF2E2
:104240005035204A1468D868C00733D4DA6892061B
:1042500044BF2022DA60CB68DD0606D4CB69DC07D8
:1042600003D4C86810F0040023D0154AD36813F0B3
:10427000100305D01449CB6943F00203CB6110232E
:10428000D268500706D5104943F00403CA6942F0CA
:104290000102CA610A4AD169C90708D50A48C16939
:1042A00041F00401C161D16921F00101D161012016
:1042B000D36030BD1068001BA842C4D90320F8E7C2
:1042C00000200240C04000209807002015490B68DC
:1042D0001A6A22F001021A621A6A1A62124A934298
:1042E0000DD141F21112186A104208D140F2444235
:1042F000186A104202BF5A6C22F400425A6441F21A
:104300001112186A104208D140F24442186A104251
:1043100002BF1A6822F001021A600123002081F80E
:104320003D3070477C050020002C014003680020D0
:104330001A6A22F001021A621A6A42F001021A6233
:10434000054A934202BF5A6C42F400425A641A680A
:1043500042F001021A607047002C014090F83C3096
:10436000012B4FF0020314D080F83D3003685A68E7
:1043700022F070025A605A685A609A6822F08002ED
:104380009A609A689A60012380F83D30002380F893
:104390003C30184670470000F0B55442A042059DDD
:1043A000164635DD602833DC002800EB0207BABF73
:1043B0004442E4B20024602FC4BFC0F16002D2B214
:1043C00019BB14492718096805EB040C0F44214652
:1043D0008A4213D8102B1BD1102B18BF00260E4B6E
:1043E00026441B68204435441844A24210D915F8CD
:1043F000013B013400F8013BE4B2F6E71CF801EBA5
:10440000013107F801EBC9B2E2E70829E4D0E1E79E
:10441000F0BD00BF4C0300205003002001280849D4
:10442000084A094B06D10948086008211170062284
:104430001A70704706480860102111700C22F7E7C7
:104440006C020020680200205A030020D8B4000843
:1044500030AE0008012873B509D1134BB3F9002021
:104460003AB912490A8008221A8002B070BD0028A9
:10447000FBD00F4B0F491C780F4B09681B78023893
:10448000DA08624380B200FB0210084D0649B5F914
:1044900000600090224691F9001030463444FFF746
:1044A0007BFF2C80E1E700BF58030020560300206B
:1044B0005A0300206C0200206802002008B5094A57
:1044C000094B02301A601022084BC0B21A700C223D
:1044D000074B1A70FFF7BEFFBDE808400020FFF74A
:1044E0009DBF00BF63BB00086C0200206802002073
:1044F0005A030020F8B5204B04460E201D78FFF724
:10450000DDFF1F20B4FBF0F0C0F10A00C0B21B4B6E
:1045100007284FEAD004196814D9F32D8CBF012362
:104520000D23002705EB030CACEB0302013B13F05A
:10453000FF03D2B206D000260A44B442F4D9177061
:104540000126FAE7FF236026F32D00F0070003FAA7
:1045500000F08CBF01230D2366432B44DBB260F0D7
:10456000FF006A1CD2B29A4205D035444C5D04402B
:104570004C551546F5E7F8BD560300204C030020C6
:1045800010B5441E14F8010F10B1FFF763FFF9E7EF
:1045900010BD002307B504290093CDF803302DD9B1
:1045A0000A23B0FBF3F203FB120102318DF8051070
:1045B000B2FBF3F101FB132302338DF804306423C3
:1045C000B0FBF3F00A23B0FBF3F203FB120002305E
:1045D0008DF8030090B20A23B0FBF3F203FB120044
:1045E00002308DF8020090B20A23B0FBF3F203FB15
:1045F000120002308DF8010090B204E0E2D00329ED
:10460000E9D00129F0D10A22B0FBF2F302FB13003A
:1046100002308DF800006846FFF7B2FF03B05DF886
:1046200004FB000070B5214A9368926883F400731C
:1046300012F0400F0CBF02220022C3F340231343A9
:10464000D8B21BB11A4B1A681A4B1A601A4A13785F
:1046500083420ED160B1164B184A1B6812689B1A30
:10466000282B1FD901281FD0022814BF00200820A2
:1046700070BD0F4D114C20B1032B00D11846002303
:1046800009E029682668891B272909D8012B02D04F
:10469000022B18BF102310702A6818462260E7E723
:1046A0000346F8E70020E3E70420E1E700080140C3
:1046B00038410020C005002064030020680300206A
:1046C0004FF080520549064B08680128FDD91A6051
:1046D000BFF34F8FBFF36F8FF6E700BFCC0700200B
:1046E00004ED00E037B5002405460120FFF796FEF3
:1046F0000A4B1C800A4B1C800A4B53F82500FFF71D
:104700003FFF102308481A4600EB45100090214651
:104710005020FFF741FE03B030BD00BF560300201C
:104720005803002058AD000824BD00080320FFF7FF
:10473000D9BF0220FFF7D6BF0120FFF7D3BF00206B
:10474000FFF7D0BF0D4BDA7D0132D2B2DA75DA7DD8
:10475000042A01BFDA7D0132D2B2DA75DA7D052A88
:1047600001BFDA7D0132D2B2DA750622D97DB1FB02
:10477000F2F000FB1212D2B2DA7570479C080020EA
:1047800005490B7A0A7AC3F3400383F0010363F30C
:1047900041020A72704700BF9C080020074B9A79BB
:1047A00099799209013262F38711997199799A790D
:1047B000C1F3801161F387129A7170479C08002041
:1047C0000C4B5A7A62B140F25231DA89143292B209
:1047D000DA81DA89914202D24FF4F072DA817047BD
:1047E000DA890A3292B2DA81DA89B2F5E17FF6D952
:1047F000FA22F3E79C08002005490B7A0A7A03F0B5
:10480000010383F0010363F300020A72704700BFE3
:104810009C080020054B9A7A12F0010F9A7A0CBF7F
:1048200042F001026FF300029A7270479C08002068
:1048300005490B7A0A7AC3F3800383F0010363F31B
:1048400082020A72704700BF9C08002005490B7A5B
:104850000A7AC3F3C00383F0010363F3C3020A724D
:10486000704700BF9C0800200A200A4B9A7999796A
:10487000C2F38302013262F3850199719A79C2F31E
:104880008302B2FBF0F100FB11219A7961F38502FA
:104890009A7170479C0800202C4B5A7AB2FA82F227
:1048A00052095A725A7A002A38D00520DA8902EB66
:1048B000C201A031B1FBF0F189B2D981198801EBB5
:1048C000C101A031B1FBF0F189B219805A8802EB25
:1048D000C202A032B2FBF0F20A2192B25A80DA8907
:1048E000B2FBF1F2DA81DA8902EB8202520092B273
:1048F000DA811A88B2FBF1F21A801A8802EB82027E
:10490000520092B21A805A88B2FBF1F25A805A8849
:1049100002EB8202520092B25A8070470920DA8973
:10492000203A02EB820191FBF0F189B2D98119881A
:10493000203901EB810191FBF0F189B219805A888D
:10494000203A02EB820292FBF0F2C5E79C080020BD
:10495000084BDA790132D2B2DA71DA793C2A84BFB3
:104960000022DA71044A1278032A04BF0022DA71A5
:10497000704700BF9C08002058020020084B1A799D
:104980000132D2B21A711A790F2A84BF00221A7129
:10499000044A1278032A04BF00221A71704700BF2C
:1049A0009C080020580200200B4B5A7A52B15A88BA
:1049B000143292B25A805A88B2F5117F01D9782206
:1049C0005A8070475A880A3292B25A805A88B2F591
:1049D000967FF6D93222F3E79C080020052205498C
:1049E0004B790133B3FBF2F202EB82029B1ADBB28A
:1049F0004B7170479C080020002814BF1020112024
:104A0000FFF75CBD054B1B785843054B1880054BE1
:104A10001B785943044B1980704700BF5A0300208C
:104A200056030020680200205803002070B5054698
:104A300001200E46FFF7F2FC00210D4C0846FFF75F
:104A4000E1FF54F83500FFF79BFD04EBC50401219D
:104A50000020FFF7D7FF6068FFF792FD0020FFF707
:104A6000DDFC30B20021BDE87040FFF7CBBF00BFD6
:104A700068AD000805210E20FFF7D8BF05210C20E6
:104A8000FFF7D4BF05211320FFF7D0BF0521122067
:104A9000FFF7CCBF70B504211120FFF7C7FF01203D
:104AA000FFF7BCFC00213723114D124C2980E17D1A
:104AB000114E0529338011D11048FFF761FD3723CE
:104AC000338008232B80E37D052B10D0E27D0C4B37
:104AD000BDE8704053F82200FFF752BDE37D032B81
:104AE00001D80848E9E7E37D042BE8D8E4E770BD86
:104AF000580300209C0800205603002018BE000820
:104B000010AE00081CBE000807210D20FFF78EBF65
:104B100008B50B200721FFF789FF044B187ABDE881
:104B20000840C0F34000FFF767BF00BF9C080020AB
:104B300008B50A200721FFF779FF054B9B799B09F0
:104B400018BF0120BDE8084008BF0020FFF754BF90
:104B50009C08002008B505210920FFF767FF034BDB
:104B60000321D889BDE80840FFF713BD9C08002049
:104B700008B508200721FFF759FF044B187ABDE854
:104B8000084000F00100FFF737BF00BF9C0800207D
:104B9000072108B50846FFF749FF0A4B9B79C3F385
:104BA0000103DAB2012A08D05BB20BB1022A06D0A7
:104BB0000548BDE80840FFF7E3BC0448F9E70448AE
:104BC000F7E700BF9C080020C9BE0008EEC000083F
:104BD000CBBE000808B510200721FFF727FF064BC2
:104BE00006489B7A13F0010F054B08BF1846BDE835
:104BF0000840FFF7C5BC00BF9C080020B1BE0008FC
:104C0000B3BE000808B506200721FFF70FFF044BCD
:104C1000187ABDE80840C0F38000FFF7EDBE00BF82
:104C20009C08002008B50F200721FFF7FFFE044B6A
:104C3000187ABDE80840C0F3C000FFF7DDBE00BF32
:104C40009C08002008B507210420FFF7EFFE044B65
:104C500001219879BDE80840C0F38300FFF799BCB3
:104C60009C08002008B505200721FFF7DFFE064B52
:104C7000064A587A064B002814BF10461846BDE86D
:104C80000840FFF77DBC00BF9C080020B1BE0008B3
:104C9000AFBE000808B505210320FFF7C7FE074B8C
:104CA000DA7922B90648BDE80840FFF769BCD8792F
:104CB0000221FFF76EFC0348F5E700BF9C080020C7
:104CC00074B70008C7BE000808B505210220FFF729
:104CD000ADFE0D4B1A7922B90C48BDE80840FFF72C
:104CE0004FBC1A791879052A07D800EB80004000DC
:104CF0000221FFF74EFC0648EFE7053880B202219B
:104D0000FFF747FC0348E8E79C08002074B7000859
:104D1000B3BE0008C7BE000808B505210120FFF793
:104D200085FE034B03215888BDE80840FFF731BCDE
:104D30009C08002008B506210020FFF777FE074BEE
:104D40005A794AB1587901210230FFF722FC044810
:104D5000BDE80840FFF714BC0248F9E79C080020B2
:104D6000B3BE0008AEBE0008064B03EB40000023B4
:104D70001A4630F823100133202B0A44F9D1C2F32C
:104D80008F007047CC010020037F082B01D1FFF773
:104D90009DBA70472DE9F047194E044637788A4688
:104DA000DFF8648067B1C14600250120FFF7DCFF12
:104DB0000135EDB2202D49F8040BF6D1013F3770D3
:104DC000BAF1000F0AD00120FFF7CEFF0D4A137889
:104DD00048F82300013303F01F0313700022134629
:104DE0000949013251F8040BD2B2202A0344F8D108
:104DF00058098000B0FBF4F080B2BDE8F08700BF36
:104E000058010020BC0500201C08002010B50B46EE
:104E1000044680B111461846FFF7BCFF40F23B1331
:104E20004043054A63431278B0FBF2F093FBF0F085
:104E300080F30800C0B210BDA401002070B5224E5E
:104E4000224AB38915789BB2044688B10A20B3FB85
:104E5000F0F00121C0B2FFF79DFF40F23B13404349
:104E6000B0FBF5F05C4394FBF0F484F30804E4B287
:104E70000A23174A00211380164A1470B089B0FB28
:104E8000F3F0C0B2FFF786FF4043B0FBF5F540F208
:104E90003B106C43B4FBF0F470200F4BA4B293F8BA
:104EA000C42102F16F01B1FBF0F200FB1212D3F842
:104EB000C01153F8220083F8C421091A2144C3F811
:104EC000C01143F8224070BD9C080020A4010020BE
:104ED00060020020B8070020CC05002010B50E4B62
:104EE0005A79B2B15C7900219889FFF753FFE4B297
:104EF0000234E4B2B0FBF4F02128B8BF21202138FD
:104F0000092828BF09200430C0B2BDE81040FFF7CF
:104F1000D5BA0F20F9E700BF9C08002070B50C4BF4
:104F200000219889FFF736FF0A25B0FBF5F4064605
:104F30000221A0B2FFF72DFB0648FFF721FB05FB7E
:104F40001460BDE87040012180B2FFF722BB00BFB2
:104F50009C08002086B900080A4B1B68D86B1A6CA5
:104F600010445A6C9B6C10441844074B1B68DA6B56
:104F700010441A6C10445A6C9B6C1044184480B254
:104F8000704700BF70030020A003002008B5002078
:104F9000FFF7EAFE6423A0F59B500538584340F222
:104FA000E13390FBF3F080B208BD000010B5044679
:104FB000FFF7ECFF0A23B0FBF3F080B2241A42F2B1
:104FC0001070054B60431B8890FBF3F0034B1B886C
:104FD000184480B210BD00BFB80800204C02002069
:104FE000094B10B51C88094B24B2001B1C88444394
:104FF0004FF47A7094FBF0F4FFF7C8FF20440A24C2
:10500000B0FBF4F080B210BD4C020020B8080020C4
:10501000064B186910F0800007D0054A5A6002F16B
:1050200088325A601869C0F3C010704700200240EF
:10503000230167451A4A036890420AD0B0F1804FB5
:1050400007D0A2F59432904203D002F580629042DC
:1050500015D14A6823F070031343114A90420AD0D5
:10506000B0F1804F07D0A2F59432904203D002F500
:105070008062904203D1CA6823F4407313434A69A3
:1050800023F08003134303608B68C3620B68836261
:10509000034B984204BF0B690363012343617047CC
:1050A000002C014013B590F83D30044603F0FF0298
:1050B00000687BB9144B84F83C20984216D103F564
:1050C0000333DA6942F00202DA61DB6903F00203BA
:1050D0000093009B0223211D84F83D30FFF7AAFFB7
:1050E0000123002084F83D3002B010BDB0F1804FA4
:1050F000F0D1064BDA6942F00102DA61DB6903F0B4
:1051000001030193019BE5E7000400400010024009
:1051100013B519200021FFF761F84FF000721C4B06
:105120001C4C1A601C4B20469A6942F400629A613A
:105130009A6902F400620192019A5A685A685A68A0
:105140005A68164A12685B68154AC3F3C223D25CD8
:10515000144B1B68D340144AB3FBF2F3134A013BD0
:105160002260636040F2E7320023E2602361A360C3
:10517000FFF798FF50B92368DA6842F00102DA605D
:105180001A6842F001021A6002B010BD0120FBE76C
:1051900000E100E0FC04002000100240002002407A
:1051A0004CAD00083400002040420F00002C0140AC
:1051B000036810B51A69044691070ED5DA6892079C
:1051C0000BD56FF002021A61012202779B699907E1
:1051D00001D1FFF7D9FD0023237723681A6952070D
:1051E00010D5DA6850070DD56FF004021A6102225B
:1051F00022779B6913F4407F02D12046FFF7C4FD5C
:105200000023237723681A6911070FD5DA6812077C
:105210000CD56FF008021A6104222277DB699B0724
:1052200002D12046FFF7B0FD0023237723681A69D7
:10523000D00610D5DA68D1060DD56FF010021A61CC
:1052400008222277DB6913F4407F02D12046FFF762
:105250009BFD0023237723681A69D2071BD5DA68E0
:10526000D00718D56FF00102B3F1804F1A6132D127
:105270001D4A1E4913880968013B9BB213801C4BD1
:105280001B78DBB20B640B6C13B313889BB2FBB1BE
:105290001848FFF74BF823681A69110605D5DA6834
:1052A000120644BF6FF080021A611A69540605D5D0
:1052B000DA68500644BF6FF040021A611A6991061D
:1052C00005D5DA68920644BF6FF020021A6110BD5E
:1052D000FEF7FCFFDFE7084A934201BF074A136865
:1052E00001331360D7E700BF600200203C050020B7
:1052F000B80700207C050020002C0140C0400020A1
:1053000010B590F83D30044603F0FF020BB980F869
:105310003C200223206884F83D30211DFFF78AFEDF
:105320000123002084F83D3010BD000070B4042536
:10533000C66B026C3468036895402542196832D008
:105340004D0730D51A6896065EBF1A6822F004022F
:105350001A603D4A934219D01432934218D0143245
:10536000934217D01432934217D01432934217D07D
:10537000143293420CBF4FF480034FF08063334AE2
:105380005360C36A002B5CD070BC18470423F6E757
:105390004023F4E74FF48063F1E74FF48043EEE7F6
:1053A0004FF48023EBE702259540254235D08D0749
:1053B00033D51A68940606D41A6822F00A021A60D5
:1053C000012280F82120204A934219D014329342BE
:1053D00018D01432934217D01432934217D014329B
:1053E000934217D0143293420CBF4FF400134FF086
:1053F0000073164A5360002380F82030836AC1E7A7
:105400000223F6E72023F4E74FF40073F1E74FF4AB
:105410000053EEE74FF40033EBE7082595402542B3
:105420000FD009070DD5196821F00E01196001236D
:1054300003FA02F2726083634FF480730384036B98
:10544000A0E770BC704700BF0800024000000240A7
:10545000F0B590F82040012C34D0012490F8215070
:1054600080F82040A5424FF000064FF0020427D1FB
:1054700080F8214004688663266826F001062660CD
:10548000D0E90F67BD40756063604368102BC36A45
:105490000BBFA260A160E160E2604BB1236843F002
:1054A0000E0300202360236843F001032360F0BD56
:1054B000236823F004032360236843F00A03F0E722
:1054C00080F820600220F2E7034B013019681A6867
:1054D000521A8242FBD37047C04000202DE9F84F9A
:1054E0004AF6AA242D4E2E4D33681C603523EB60FE
:1054F000FFF78EFD0A20FFF7E7FF33681C60294C99
:10550000237E012B17D001232376FEF795FE80B969
:10551000E0612B6943F002032B61234B6B612B6924
:1055200043F040032B61FEF787FE2B6923F0020353
:105530002B6100232376FFF76BFD4AF6AA2ADFF8DA
:105540006C80194D164FDFF868903368C3F800A0DF
:10555000237E012B15D00123B8F800B02376FEF787
:105560006BFE60B9E0613B6943F001033B61A5F864
:1055700000B0FEF761FE3B6923F001033B610023AD
:10558000237602354D4508F10208DED1044A13693D
:1055900043F080031361BDE8F88F00BFF0040020E2
:1055A000002002409807002000FC00089C08002012
:1055B0001CFC00082DE9F74F00221646644BDFF86B
:1055C000A0C1DFF8A0E14FF001080C6808FA06F866
:1055D00008EA0404A0457CD14D68122D00F0AA8091
:1055E00000F28580022D00F0A28079D8002D00F015
:1055F0008B80012D00F099804FF00F09FF2C98BF90
:1056000082464FEA860592BFD0F800B0D0F804B0C9
:10561000203D09FA05F82BEA080802FA05F588BFCB
:1056200000F1040A48EA0505CAF80050D1F804A0C0
:105630001AF0805F4DD0474F26F00308BD6908F18E
:10564000804845F00105BD61BD6908F5803805F069
:105650000105019506F0030B019D4FEA8B0BD8F86D
:10566000085009FA0BF925EA09093B4DA84268D010
:1056700005F58065A84266D005F58065A84264D02E
:1056800005F58065A8420CBF0325042505FA0BF536
:1056900045EA0905C8F808501D681AF4803F14BF90
:1056A0002543A5431D605D681AF4003F14BF2543E0
:1056B000A5435D609D681AF4801F14BF2543A54370
:1056C0009D60DD681AF4001F14BF2C4325EA040412
:1056D000DC600136102E7FF476AF03B0BDE8F08FAA
:1056E000032D2AD0112D87D1CA68043284E71B4FBD
:1056F000BD4209D012D8DFF870904D4504D009F5AD
:1057000080394D457FF478AF8A68C2B1012A0CBF59
:10571000C0F81080C0F8148008226DE76545F3D00A
:105720007545F1D0DFF84490EBE7CA6864E7CA68D2
:10573000083261E7CA680C325EE700225CE70422A7
:105740005AE70025A2E70125A0E702259EE700BF52
:105750000004014000100240000801400000211038
:105760000000311000003210000011100000221063
:10577000F7B50246002092F824300190012BD2F8B0
:1057800008C000F0CF80012782F82470D1E90056CC
:105790001368BCF1000F7AD1BE4272D160469C6B97
:1057A000A40DA40544EAC5349C639C68E40707D4AF
:1057B0009C68CF6924F4E04424F001043C439C60DD
:1057C0008C69012C0DD1CF69B7F5E04F17BF906AF6
:1057D0005F6840F02000906212BF204647F4806767
:1057E0005F604F69012F05D1002C70D15C6844F4D3
:1057F00080545C60092D05EB4504D1F808E04FF0BA
:1058000007076AD9D3F80CC01E3CA7402CEA07074B
:105810000EFA04F43C43DC60A5F11004012C98BF9F
:105820009F68DFF810C19CBF47F400079F60022EFD
:10583000CF685CD0032E60D0012E64D1596901EA93
:105840000C0139435961012C16D837498B4263D179
:105850009968090210D49968102D41F400019960EB
:105860000AD1324B32491B68B3FBF1F10A234B4397
:105870000193019B002B4CD1002382F8243003B00C
:10588000F0BD946A384644F0200494628DE71F27E7
:10589000D1F810C0A6EB0C0404EB84040F34A7402D
:1058A00047F44017B4456FEA07070CD3D3F838E044
:1058B0000CF1FF3C05FA04F444EA0C540EEA070725
:1058C0003C439C6371E79C6B27409F636DE7906A44
:1058D00040F02000906238468CE7D3F810C0A74013
:1058E0002CEA07070EFA04F427431F6194E799692D
:1058F00001EA0C0139439961A5E7D96901EA0C0174
:105900003943D9619FE7196A01EA0C0139431962E9
:1059100099E7019B013BABE7936A012043F0200329
:105920009362A9E70220AAE7002401403400002086
:1059300040420F0000F0FFFF70B50568124E6B6922
:1059400013F0400301D000200EE06C6914F0100445
:105950000BD06FF010026A612022036480F83C30A3
:10596000036380F83D20012070BD33689B1A8B4291
:10597000E5D9036C80F83C4043F020030364202306
:1059800080F83D300320EFE7C040002070B5056887
:10599000134E6B6913F0040301D000201FE06C6903
:1059A00014F480640FD133689B1A8B42F1D9036CD5
:1059B00080F83C4043F0200303642023046380F814
:1059C0003D3003200BE06FF480626A6104220264C0
:1059D0002022036380F83C3080F83D20012070BD18
:1059E000C040002070B50568134E6B6913F080034A
:1059F00001D000201FE06C6914F480640FD133687B
:105A00009B1A8B42F1D9036C80F83C4043F0200391
:105A100003642023046380F83D3003200BE06FF41F
:105A200080626A61042202642022036380F83C30B1
:105A300080F83D20012070BDC0400020F0B5056811
:105A4000144F6C6921EA0404A4B20CB9204614E096
:105A50006C6914F4806411D02B68202243F4007325
:105A60002B606FF480636B61042303640023036382
:105A700080F83C3080F83D200120F0BD3E68F61AE9
:105A80009642DED92023046380F83C4080F83D3004
:105A90000320F2E7C0400020F0B5DFF844C00668FC
:105AA0000F0C012F0CBF7469B46921EA0404A4B27D
:105AB000B4FA84F46409A24201D000200FE0DCF8BB
:105AC0000040059D641B9C42EBD900232022036308
:105AD00080F83C3080F83D2080F83E300320F0BD57
:105AE000C04000202DE9F041044686B018B90120DD
:105AF00006B0BDE8F08190F83D306D4E03F0FF0533
:105B0000002B60D1C02212230127CDE902230223FA
:105B100080F83C5002A96748CDE90473FFF74AFDBD
:105B20004FF0800E1821F369634843F40013F361CA
:105B3000F369624A03F400130193019B604BDFF8A1
:105B4000A8C1C3E903E5C3E90005C3E90555C3E9F5
:105B50000F219D60DD6101684FF0100801EA0C0122
:105B600041EA0E0101604FF480709D631884A363C5
:105B70005C62544B5449C3E9025E4FF4805EC3F843
:105B80001CE04FF0140EC3E90018C3E90455C3E943
:105B90000F2E9D610A6802EA0C0242F4845242EA26
:105BA00008020A609D63188463630F211F205C62F2
:105BB000FEF714FB4FF00043444D0F212B602020D3
:105BC000FEF70CFB6F602423216884F83D300B68DE
:105BD0003F4A23F001030B6073683E48C3F302237E
:105BE000D35C3D4A1268DA406368834294BF3B4805
:105BF0003B4882428CBF0020012000287FF477AF11
:105C0000344E384DB342B2FBF5F588BF4FF4967071
:105C10004D6083BF68434FF47A75B0FBF5F0681CA4
:105C200088BF0130B342086202F1FF3223D85B0023
:105C3000B2FBF3F2531C40F6FC72134233D0C3F3B1
:105C40000B03CB61D4E9073213430B60D4E9032380
:105C500013438B60D4E905321343CB600B680020FB
:105C600043F001030B602023206484F83D3020635F
:105C700084F83E003CE7A06850B903EB4303B2FB55
:105C8000F3F30133C3F30B037BB143F40043D8E7D1
:105C900019204343B2FBF3F30133C3F30B0323B1E6
:105CA00043F44043CDE70423CBE70123C9E700BF1A
:105CB00000100240000C0140800002400000024041
:105CC00014040020580400206C00024000E100E0B1
:105CD0004CAD0008A0860100340000207F841E0027
:105CE000FF083D0040420F000FC0FFFFF0B52B4EF4
:105CF0001120336885B01A6840251368802723F087
:105D0000010313600123CDE901030223244C6946FA
:105D1000204603930095FFF74DFC256169460097E7
:105D2000FFF748FC65234FF480022761A16809064C
:105D30002BD5122201234027CDE901230223802500
:105D40006946174803930097FFF734FC69461448E7
:105D50000095FFF72FFC2761256133681A681368E7
:105D600043F40043136000BF33681A68136823F4D8
:105D70000043136000BF30680268136843F00103FA
:105D80001360FFF7AFFE05B0F0BD226100BF00BF9A
:105D900000BF00BF013B2561C8D1F4E760030020CC
:105DA000000C0140436A9A6A42F040029A62DA6A41
:105DB00042F00402DA6270477047436A9A6A12F04E
:105DC000500F18D19A6A42F400729A621A68926867
:105DD00002F46022B2F5602F10D1DA6872B99A6AC3
:105DE00022F480729A629A6AD20407D49A6A42F0C4
:105DF00001029A6270471B6A1B6B184770470000CC
:105E0000036810B59A68D40701D4002010BD9A68C1
:105E100022F001029A60094A14689968C907F4D50A
:105E20001168091B0229F8D9836A43F010038362C1
:105E3000C36A43F00103C3620120E7E7C0400020CA
:105E4000F0B5816A87B0044600293DD102685F4BF6
:105E5000C1629A4280F8241003F56C439A6940F0BD
:105E6000888042F400729A614FF4807580229B69A9
:105E70004FF4806603F400730293029B544B554821
:105E8000C3E903252022C3E905624FF44052C3E968
:105E90000001DA61504A19649960DA63026822F4F9
:105EA0007F5222F0300242F4565242F02002026049
:105EB00099631D8423625C620F211220FEF78EF924
:105EC0004FF48022454B1A602046FFF799FFA36AE2
:105ED00013F0100375D1002873D1A26AE56922F48A
:105EE0008852616822F0020242F002022943A5684A
:105EF000A262E268B5F5807F41EA42014AD0012DF5
:105F000014BF00274FF480776669012E07D1002A5D
:105F100042D1A269013A47EA423646F40067226854
:105F2000B5F5807F566826F4694646EA070656604E
:105F300097682B4E06EA070646EA0106966001D0EE
:105F4000012D02D12369013B1B05D56A25F470059B
:105F50002B43D3629268234B1340994225D10023EF
:105F6000E362A36A23F0030343F00103A36207B0D3
:105F7000F0BD42F480629A619B69012203F4806360
:105F80000193019B032302A91748CDE90223FFF7E0
:105F900011FB91E72F46B7E7A26A42F02002A26206
:105FA000E26A42F00102E262B9E7A36A23F0120357
:105FB00043F01003A362E36A43F00103E3620120AC
:105FC000D5E7A36A43F01003A362F8E70024014079
:105FD000D0030020080002400000024000E100E081
:105FE000FDF7E1FFFE0E1FFF000C0140002337B557
:105FF000026801939368DB0702D5002003B030BD2F
:106000009368124943F001039360114B1B68B3FB83
:10601000F1F30193019BABB90E490D68936813F03E
:106020000103EAD10C68641B022CF7D9826A80F85C
:10603000243042F010028262C26A42F00102C2625F
:106040000120DBE7019B013BE3E700BF40420F007B
:1060500034000020C040002010B590F824300446E1
:10606000012B4AD0012380F82430FFF7BFFF00281E
:106070003FD1A36A224A23F4405323F0010343F49F
:106080008053A3622368934205D1A2F580625268CF
:1060900012F4702F25D1A26A22F48012A262A26AA1
:1060A00012F4807208BFE262002284F824206FF0AC
:1060B00004021A605A68520512D49A6802F4E04247
:1060C000B2F5E04F11D10E4A934205D1A2F580629C
:1060D000526812F4702F08D19A6842F402129A6042
:1060E00010BDA26A42F48012D8E79A6842F40042D6
:1060F000F5E7002384F82430F2E70220F0E700BF40
:1061000000280140002337B5019390F8243004465D
:10611000012B5FD0012380F82430FFF771FE054684
:10612000002839D1A36A2C4823F4885323F00203B2
:1061300043F00203A362294B1A68294B59685B6834
:10614000C1F3C221415CC3F38133013322FA01F16F
:106150005B00B1FBF3F3B2FBF3F252000192019B3F
:10616000F3B92046FFF742FF23689A6842F008021D
:106170009A601C4A10689968090715D4996841F01B
:10618000040199601068996849071ED4A36A23F036
:10619000030343F00103A362002384F8243011E0D9
:1061A000019B013B0193DAE71168091A0A29E2D938
:1061B000A36A012523F0120343F01003A362002316
:1061C00084F82430284603B030BD1168091A0A2922
:1061D000D9D9EDE70225F5E74CAD000834000020E1
:1061E00000100240C04000204FF0500383F311889C
:1061F000BFF36F8FBFF34F8FFEE7000008B5EFF3DB
:1062000005830F2B07D90D4A9B5C0D4A12789A42E1
:1062100001D9FFF7E9FF0B4B0B4A1B68126803F427
:10622000E063934208D94FF0500383F31188BFF322
:106230006F8FBFF34F8FFEE708BD00BFF0E300E0B4
:10624000BA4000200CED00E0BC400020084A136872
:1062500043B94FF0500383F31188BFF36F8FBFF33F
:106260004F8FFEE7013B13600BB983F31188704732
:10627000A801002008B54FF0500383F31188BFF345
:106280006F8FBFF34F8F074A13680133012B1360E1
:1062900006D1054B1B6813F0FF0F01D0FFF7A4FFD9
:1062A00008BD00BFA801002004ED00E0064800681A
:1062B000006880F3088862B661B6BFF34F8FBFF302
:1062C0006F8F00DF00BF000008ED00E010B50F4B3E
:1062D0001A68824218D35C681919884201BF416864
:1062E000184609195960446801198A4207D10849BA
:1062F00009688A421FBF51681268091941609842B3
:10630000026018BF186010BD1346E1E7304100205D
:10631000C40700200369D0E901128A6051605968FE
:10632000814208BF5A600022026118680138186073
:1063300070470A6830B5531C0AD103695A684A602D
:1063400091608B605960036808610133036030BD60
:1063500000F108035C6825689542EFD82346F9E709
:1063600043689A684B608A609A68516099600368D4
:10637000086101330360704770B5154B154E1C68FA
:10638000054630680430FFF7C5FF334640B9316831
:106390001148CE6A01210268B14022EA010202607E
:1063A0001A686419546007D3BDE870400B4A10683E
:1063B00019680431FFF7BDBF094A10681968043134
:1063C000FFF7B7FF074B1A68944238BF1C6070BDD7
:1063D00038410020BC070020D4400020C80700201E
:1063E000C0070020104100202DE98048002095B012
:1063F000FEF724FD6520FEF7D9FD00250746642041
:10640000FEF7D4FD5522A846A946484B484C1A70C1
:106410003F1A4422002103A804F056FC454E22688E
:10642000454BFFB235601A604FEA970BFFF722FF2A
:1064300023685B6D7BB9012223684FF4FA6083F80F
:106440005820FFF799FF4FF080533C4A1360BFF389
:106450004F8FBFF36F8FFFF7F9FEFFF70BFF236836
:10646000D3F854A0BAF1000F02D02368C3F85490B7
:10647000236883F85890FFF7E9FEBAF1000F4AD07D
:10648000FEF76AFD2E4B824618803368002B40D001
:106490004FF4E1700193FEF789FD019B834232D9ED
:1064A0004FF4E170FEF782FD30600F200E35B5FB32
:1064B000F0F3C3EB0313EB1A14A93268DDB201EB5E
:1064C000830353F8441C5A44A2EB0A0202F30F025E
:1064D000A8EB0108904443F8442C98FBF0F06523A6
:1064E000184A4343D2F8C001702293FBF7F390FBA4
:1064F000F2F000EB4310FEF7A1FC4AF6AA22124B81
:106500001B681A6092E747F69062934288BF326038
:10651000CBE71846EFE700BE5046FEF78FFC0A2394
:106520000A4A13800A4B83F800A07FE7A4010020E9
:10653000BC0700206C0300206402002004ED00E092
:10654000C8050020CC050020F004002060020020D7
:10655000B8070020054B1B6833B1054B1B68002BA7
:106560000CBF022000207047012070472C41002002
:10657000CC400020064A13681968064B19B94FF041
:10658000FF321A6070471268D268D2685268F8E722
:10659000C00700201041002008B9064B1868026BA4
:1065A0000020135CA52B02D0C0F38F007047013090
:1065B000F7E700BFBC070020F8B5FFF75BFE0D4C06
:1065C0000D4A0568166823689D42456801D0B542AA
:1065D0000ED90B68771B9F420AD29B1B2B440B6082
:1065E00023680360136843600020FFF72FFEF8BDA7
:1065F0000120FAE7144100203841002038B5C36873
:10660000DC680CB9FFF7F0FD04F118052846FFF728
:1066100081FE114B1B68E3B9251D2846FFF77AFE62
:1066200001230E49E26A08689340034314200B607B
:1066300029460B4B00FB0230FFF792FE094BE26A42
:106640001B68DB6A9A4285BF0120074B0020186057
:1066500038BD29460548EFE7CC400020D440002053
:10666000CC070020BC0700203C410020184100203E
:10667000202210B5214B1B6883F83D20204B186861
:10668000002835D0036C43B14FF0500383F31188D9
:10669000BFF36F8FBFF34F8FFEE7036853B94368B3
:1066A00043B14FF0500383F31188BFF36F8FBFF3F3
:1066B0004F8FFEE7FFF7A2FDEFF311844FF0500379
:1066C00083F31188BFF36F8FBFF34F8F826BC36B60
:1066D0009A420BD290F8453001325BB282635A1C69
:1066E00007D1436A13B12430FFF788FF84F3118880
:1066F00010BD01335BB280F84530F7E7600300203E
:106700005C030020436A1A68116821F480611160FB
:106710000021586B59854163986B416393F83D00A4
:1067200060284FF0200083F83D0083F83E1006D12A
:106730001964136823F001031360FFF799BF13680E
:1067400023F00103136000BEF7E7000008B590F8DE
:106750002130022B03D004238363012008BD03688A
:106760001A6822F00E021A601A6822F001021A60FA
:10677000174A93421DD0143293421CD014329342D4
:106780001BD0143293421BD0143293421BD01432CC
:1067900093420CBF4FF480134FF080730D4A536047
:1067A0004FF480730384436B83B1FFF7ABFF00208A
:1067B000D4E70123F2E71023F0E74FF48073EDE70D
:1067C0004FF48053EAE74FF48033E7E71846C5E714
:1067D000080002400000024010B5444C94F83D20EF
:1067E0002368293A012A36D800222263282284F815
:1067F0003D201A6822F400621A605A6812F400629E
:1068000051D05A6822F400625A60606B90F82130CF
:10681000012B374B2ED04363FFF798FF50B122680E
:10682000136823F0010313602023606B84F83D306C
:10683000436B984794F83D30282B0BD1236C5B07B2
:1068400008D52C4B2022E3620023236384F83D20EB
:1068500084F83E3010BD94F83D20602A05D05A6877
:1068600012055CBF202284F83D200022226384F8B8
:106870003E20BEE7A06B4363FFF768FF0028D9D036
:1068800023685A69500604D51A69636A591C616203
:106890001A702268136823F0010313602023A06B91
:1068A00084F83D30C4E794F83D10602913D12021CD
:1068B00084F83D1022645A69510604D51A69636A46
:1068C000591C61621A702268136823F00103136077
:1068D000FFF7CEFEAEE75A69520604D51A69636A1D
:1068E000591C61621A7000BEF2E700BF9C040020D0
:1068F000056700080000FFFF436A19680A6822F470
:1069000080620A60002220215A8583F83D1083F8B6
:106910003E201A6C42F010021A6400BEFFF7A8BEB7
:10692000426A92F83D1092F83E00C9B22129C0B2E5
:10693000136803D022290CD120280AD1596821F4E8
:1069400000615960002151855A6842F440725A60D2
:106950007047196821F480611960196841F4007169
:106960001960596821F480515960596821F4006117
:10697000596000235385136C13B100BEFFF778BE36
:10698000202182F83D1092F83E1082F83E30F5E763
:106990002DE9F0410446FFF76DFC4FF0010890F837
:1069A00045501B4F6DB200F12406002D17DCFF236C
:1069B0004FF0010884F84530FFF748FCFFF75AFC18
:1069C00094F84450124F6DB204F11006002D12DC01
:1069D000FF2384F84430BDE8F041FFF737BC636A19
:1069E000002BE4D03046FFF709FE08B1C7F800805D
:1069F000013D6DB2D9E72369002BE9D03046FFF79E
:106A0000FDFD08B1C7F80080013D6DB2DEE700BFB3
:106A10003C4100202DE9F84F3C4B1B68002B6ED108
:106A20003B4B1C6801341C60BCB93A4B1A681268B5
:106A300042B14FF0500383F31188BFF36F8FBFF360
:106A40004F8FFEE7344A1968106818601160334AA6
:106A5000136801331360FFF78DFD314D4FF0000BCC
:106A60002B68304FA34211D93A682F4BD16A1422B8
:106A70004A439A58022A28BF4FF0010B2B4A12684A
:106A8000002A0CBF58460120BDE8F88FDFF884A02B
:106A9000DFF8A090DAF8002012681AB94FF0FF3240
:106AA0002A60E1E7DAF80020D268D66871688C4283
:106AB00001D22960D8E706F104084046FFF72AFC16
:106AC000B16A19B106F11800FFF724FC01224FF05A
:106AD000140CF06AD9F8003002FA00F11943124B95
:106AE000C9F800100CFB00304146FFF739FC38684C
:106AF000F16AC26A914228BF4FF0010BCAE70C4A03
:106B00004FF0000B136801331360B7E7CC4000204F
:106B100038410020C0070020C80700201441002091
:106B200010410020BC070020CC0700203C41002081
:106B3000C8400020D440002031492DE9F8430B68BB
:106B400043B94FF0500383F31188BFF36F8FBFF346
:106B50004F8FFEE7FFF78EFB0B68013B0B600C6865
:106B600024B10020FFF772FBBDE8F883254B1B68BA
:106B7000002BF6D0244D254EDFF8A4801FE0EB68F3
:106B80000127DC6804F1040904F11800FFF7C2FBD7
:106B90004846FFF7BFFB1420E26A316807FA02F3A8
:106BA0000B4300FB028049463360FFF7D9FB184BCB
:106BB000E26A1B68DB6A9A4201D3164B1F602B689E
:106BC000002BDCD10CB1FFF7D5FC134D2C6844B180
:106BD0000127104EFFF71EFF00B13760013CF9D1CD
:106BE0002C600C4B1B68002BBBD04FF080520B4B22
:106BF0001A60BFF34F8FBFF36F8F0120B2E700BF62
:106C0000CC400020C440002018410020D440002087
:106C1000BC0700203C410020C840002004ED00E0FB
:106C2000CC070020024A136801331360704700BF8D
:106C3000CC4000202DE9F0413A4CFFF7F3FF2368E8
:106C4000394DCBB90021394B394A5E071CBF073398
:106C500023F0070313605160364A22F00702C2E9AD
:106C60000011D11AC3E90021334B22601960334B64
:106C700019604FF000432B602F6807424DD1002868
:106C80004BD000F1080359071CBF23F0070308335A
:106C9000002B42D0294A166890469E423DD3244A92
:106CA00015686968994201D22868A0B92068A8428D
:106CB00033D02868C91A10291468106012D9E8184E
:106CC00042070BD04FF0500383F31188BFF36F8F4F
:106CD000BFF34F8FFEE72A460546E2E741606B604F
:106CE000FFF7F4FA6B681449F61A1F43002308688B
:106CF000C8F80060864238BF0E6008346F602B60B1
:106D0000FFF71AFF63070AD04FF0500383F311888F
:106D1000BFF36F8FBFF34F8FFEE70024F0E72046ED
:106D2000BDE8F081C4070020D8400020BA08002048
:106D300030410020B24000200C41002004410020DE
:106D400008B540B94FF080520A4B1A60BFF34F8F1D
:106D5000BFF36F8F08BD084B1B680BB1FFF744FAF8
:106D6000FFF760FFFFF708FBFFF7E6FE0028E9D01A
:106D7000F0E700BF04ED00E0CC4000200520FFF765
:106D8000DFBF10B5FDF74EFC04462CB1FDF74AFC01
:106D90000446FFF7F3FFF8E7FDF744FC0446FFF76E
:106DA000EDFF002CF8D010BD2DE9F8434FEA820822
:106DB0000646404689461F46FFF73CFF0546002829
:106DC00000F0DE805C20FFF735FF0446002800F06D
:106DD000B18005634246A521284603F075FF226B6A
:106DE00009F1FF3304F1340109F1170913F8010F18
:106DF00001F8010B08B14B45F8D1032F28BF032739
:106E0000C7F104030021A3614FF08073A8F10408C7
:106E1000424422F00702616584F84B10C4E9137103
:106E20006161A16284F85810E7622461646242F8EB
:106E3000043C5A4B26F0010642F80C3C089B42F8F1
:106E4000086C42F8201C403A22601C60FFF712FADE
:106E50005349544E0B68DFF87C8101330B60326874
:106E6000514BD4F82CC0002A40F08D803460096862
:106E7000012939D14FF0FF3703F108015960C3E907
:106E800002711961194641F81C2B484DC3E90617D8
:106E9000C3E9081103F13001C3E90B17C3E90D1170
:106EA00003F14401C3E91017C3E9121105F1080108
:106EB000C5E90117C5E903113D495A6101F108000F
:106EC000C1E90107C1E903003A489A6200F1080EDE
:106ED000DA632A600A60C0E901E7C0E903EE0260F4
:106EE000354A1560354A1160012535490A68013275
:106EF0000A60344905FA0CF20868024314200A605B
:106F000000FB0C30211DFFF72BFAFFF79FF9D8F893
:106F1000003063B13368DA6AE36A9A4207D24FF00D
:106F20008052294B1A60BFF34F8FBFF36F8F2846F3
:106F3000BDE8F883254A55F8043C1268134208D18D
:106F40004FF0500383F31188BFF36F8FBFF34F8F60
:106F5000FEE755F8081C09B1FFF746F923EA0203DA
:106F600045F8043CFFF75EFE194A55F8043C1168E9
:106F7000A5F108000B441360FFF7A8F9FFF7DCFD4B
:106F80004FF0FF35D3E7D8F80020002AACD13268A3
:106F9000D26A624598BF3460A6E700BFAD410008E1
:106FA000C4400020BC070020CC070020DC400020AB
:106FB000F040002018410020C0070020C807002032
:106FC000D0400020D440002004ED00E0D840002054
:106FD000044100202C4100201FB50346D0E90010D9
:106FE0001A8AB3F9083003AC842B14BF033300238F
:106FF0000094FFF7D9FE012814BF0020039804B0C5
:1070000010BD0000C0220021014803F05DBE00BF9A
:107010008102002010B5254C1C220021204603F0DF
:1070200053FE96236380062323714FF4A073192225
:1070300023800023022163716275227A63F3C30205
:107040002272227A63F382022272A27961F3010230
:107050000721A271A27961F38502A27140F2D312D5
:10706000A2810A22E271227A42F0010222724FF4D6
:10707000D272E281A27963F38712A271227A63F35A
:10708000410222726372A27A63F30002A2722A2280
:10709000A2743222E2740F2222754FF4AF62228270
:1070A000A375E375BDE81040FEF718BA9C080020F0
:1070B0002DE9FF4100230446019340B94FF05003EE
:1070C00083F31188BFF36F8FBFF34F8FFEE7026C1E
:1070D00042B14FF0500383F31188BFF36F8FBFF3BA
:1070E0004F8FFEE7FFF736FA50B9019B4BB14FF0D7
:1070F000500383F31188BFF36F8FBFF34F8FFEE709
:107100001046724E724F734DB9E06568B5B90025EF
:1071100000226260626A0136A663002A65D004F12B
:107120002400FFF76BFA002861D04FF08052694BC2
:107130001A60BFF34F8FBFF36F8F58E0664B1B6829
:107140009D4208D04FF0500383F31188BFF36F8F37
:10715000BFF34F8FFEE72B6D43B94FF0500383F31E
:107160001188BFF36F8FBFF34F8FFEE7E96AEA6CB8
:10717000013B91422B65CAD0002BC8D12F1D384648
:10718000FFF7C8F8DFF858C1544A70B91420D5F891
:107190002CE000FB0EF05CF8003033B901211368DD
:1071A00001FA0EF123EA01031360EB6CC3F1040151
:1071B000EB62A9610125116805FA03F0084310602C
:1071C0001420394600FB03C0FFF7CAF8A0E70021EE
:1071D000A06803F06BFDA368226C13446268A3608F
:1071E000934224BF2368A36057E0002D9DD1FFF791
:1071F0002DF8012004B0BDE8F081019919B9FFF71D
:1072000025F80020F6E718B9336802933B6803932A
:10721000FFF71CF8FFF706FDFFF72CF894F8443051
:10722000FF2B04BF002384F8443094F84530FF2B33
:1072300004BF002384F84530FFF708F801A902A82D
:10724000FFF7BAF900283AD1FFF714F8A26BE36B05
:107250009A4224D1FEF7FAFF1F4BDDF8048019682B
:1072600004F110001831FFF764F84046FFF784F886
:107270002046FFF78DFBFFF75FFCC0B10120FEF752
:10728000F9FFA26BE36B9A42B7D2226CA66B002A7D
:107290009DD12368002B3FF438AF00253AE7FEF775
:1072A000D5FF2046FFF774FBFFF746FCE6E74FF0FB
:1072B00080532B60BFF34F8FBFF36F8FDEE7204605
:1072C000FFF766FBFFF738FC9BE700BF1441002087
:1072D0003841002004ED00E0BC070020D44000202D
:1072E000CC0700202DE9FF4732230446019340B923
:1072F0004FF0500383F31188BFF36F8FBFF34F8FAD
:10730000FEE7026C42B14FF0500383F31188BFF3E4
:107310006F8FBFF34F8FFEE7FFF71CF950B9019B4A
:107320004BB14FF0500383F31188BFF36F8FBFF35E
:107330004F8FFEE71046DFF8D4816F4F91E0019B3D
:107340001BB9FEF783FF0020C0E028B96B4B1B6818
:1073500002936B4B1B680393FEF778FFFFF762FC09
:10736000FEF788FF94F84430FF2B04BF002384F815
:10737000443094F84530FF2B04BF002384F8453097
:10738000FEF764FF01A902A8FFF716F9002840F0F4
:10739000A480FEF76FFFA36B002B5AD1FEF756FFB8
:1073A0002368584E002B3BD1FEF764FF6568002D23
:1073B00034D03268EB6AD26A93422FD24FF014096C
:1073C000AA6909FB0373002AA1BF3268D26AC2F11D
:1073D0000402AA616A699A427BD105F1040A504607
:1073E000FEF798FF484A58B9E86A09FB00F957F8D0
:1073F00009302BB901211368814023EA010313608E
:1074000033681168D86A012383400B431360142347
:10741000E862514603FB0070FEF7A2FFFEF716FF7D
:107420003168019D183104F12400FEF782FF2846DF
:10743000FEF7A2FF2046FFF7ABFAFFF77DFB78B916
:107440004FF08053C8F80030BFF34F8FBFF36F8FFA
:1074500006E0FEF7FBFE2046FFF79AFAFFF76CFB0B
:107460000120FEF707FFA56B002D3FF468AF226CEB
:107470006AB1E368616813448B42E36028BF236804
:107480004FF0000028BFE360E16803F00FFC2368C1
:10749000013DA56343B91B4B1A681AB119680A6DFF
:1074A00001320A651B686360236963B104F110004F
:1074B000FFF7A4F838B14FF08052144B1A60BFF3B5
:1074C0004F8FBFF36F8FFEF7C1FE012004B0BDE800
:1074D000F0873368DB6AEB62A0E72046FFF758FAD3
:1074E000FFF72AFBFEF7C6FEA36B002B3FF429AF84
:1074F000FEF7ACFEB4E700BFCC070020144100202B
:1075000038410020BC070020D440002004ED00E0FA
:10751000F0B5A14D0646286885B00F46002840F01A
:10752000BB809E4B1C689E4B1D6894F83D30202B01
:1075300040F08B800095192301229A492046FEF7DE
:10754000ABFA002840F0818094F83C30012B7CD0CD
:10755000012384F83C3023681A68D2075EBF1A689A
:1075600042F001021A601A6822F400621A602123B4
:1075700084F83D30102384F83E3000232364A3F5C3
:1075800080336785E362638D66622385E36A042B3B
:1075900004D0012B02D013F5803F05D12268136877
:1075A00043F48073136002E0236B122BF6D0009536
:1075B00041F2883300224FF001112046FEF76CFAA9
:1075C00068BB22692368B2F5804F1DD178227649C5
:1075D0001A6120462B4641F28832FEF72FFAE8B9AD
:1075E000236802905A6902929B690293029B238D41
:1075F000E3B921680A6842F400720A60202284F824
:107600003D2084F83E300CE0F02268491A612046A3
:107610002B4641F28832FEF711FA28B1236C236C15
:10762000002384F83C3010E02368CFE72A4641F27B
:1076300088312046FEF7D6F948B1236C042B04D1DB
:107640002268136843F40073136005B0F0BD616AEB
:1076500020684B1C63620B780361638D228D013BB4
:107660009BB26385531E9BB22385466976070AD574
:107670004BB18B1C63624B78023A0361638D2285A8
:10768000013B9BB263852A4641F288312046FEF7D2
:107690007DF90028ABD0D0E7FFF724FE0128D4D134
:1076A0003E4B1C680023039394F83D30202B12D1ED
:1076B00046F2A8123E4B1B68B3FBF2F21923534368
:1076C0000393039B5A1E03926BB92022236384F811
:1076D0003C3084F83D20FEF709FB286805B0BDE882
:1076E000F040FFF7E5BC226893699907E9D494F864
:1076F0003C30012BEFD0012384F83C301368002587
:10770000DB0758BF13684FF078015CBF43F00103FB
:107710001360136823F400631360212384F83D3061
:10772000102384F83E30234B25646785E362638D24
:1077300066629BB223856164F3B1606B1E491032AF
:1077400081621E494563C0E90B513146FDF780FE59
:1077500023681A6842F480621A601A6842F48072E0
:107760001A6084F83C505A6842F440725A605A6871
:1077700042F400625A6068E7116841F48061116068
:10778000116841F48071116084F83C30536843F40F
:10779000E063536059E700BF5C03002060030020F2
:1077A000C04000200200100002000100080001009B
:1077B000340000200000FFFF21690008F96800087C
:1077C00038B5114D04462A78824218D00F4BB8B113
:1077D000C822DA72A12232210C48DA74FFF798FE2F
:1077E000002C14BF00222022094B2C705A7114BFA8
:1077F0005F227F22DA7114BFC822C0225A7238BDBC
:10780000C022DA72A022E6E7540300200000002024
:10781000700200200E4B99799A79013161F30102CF
:1078200003219A719A7902F00302B2FBF1F101EBA4
:107830004101521A997962F301019971987910F016
:10784000030002D0012800D07047FFF7B9BF00BF86
:107850009C080020D1210148FFF75ABE7002002089
:1078600030B5E5B033A80246174B184933F8024B40
:107870008B4222F8024BF9D102AB00211A4630F8B4
:10788000024B0131251262291D705C7003F1020365
:10789000F5D11378AA2B15D15378552B12D19378A3
:1078A000F02B0FD1D3780D2B0CD1002103AB084660
:1078B000009360221023FCF76FFDFFF7CBFF012040
:1078C00065B030BD0020FBE700F80008C4F80008F0
:1078D0002DE9F84F00242646A0464E4D4E4B2F680A
:1078E000DFF850B11C604D4BABF80080A3F800806E
:1078F000FFF788FB0020FCF791FDFCF793FED0B169
:1079000001382F680F2816D8DFE800F06268155993
:107910001515150815151515151515812A68A31BBC
:1079200013441E2B07D93E4A13880A3B9BB213808F
:1079300003342E68E4B2DFF8E8A0C4F11E039AF81D
:107940000920092BD8BF1424002A4BD040F2523210
:10795000BAF800108A4238BFAAF80020BAF800200E
:10796000772A02D87822AAF800202A68D21BC82ACF
:107970004DD82C4A92F80090B9F1000F41D02A4816
:10798000FCF7FEFD2948FCF7FBFDBAF800000321D7
:10799000FCF7FFFD9AF80930002B34D00020FCF7EB
:1079A0008DFD2248FCF7ECFDB9F1000F2DD02048E9
:1079B000FCF7E6FDFFF74EFFFFF7E0F993E72A68D3
:1079C000A31B13441E2BB6D9154A13880A33ADE7FF
:1079D000134A13880A339BB21380ACE7104A13880A
:1079E0000A3BF8E7BAF80020B2F5E17F84BF4FF414
:1079F000E172AAF80020BAF80020312AB5D8322264
:107A0000B1E70B48BCE70120C9E70748D0E7BDE86C
:107A1000F88F00BF384100206C030020560300207F
:107A20009C0800205403002014BE0008AABD0008D2
:107A300016BE000858030020F8B5224D0021A88981
:107A4000FDF7A8F9204B1B68962B37D96A7902F00D
:107A5000FF036AB303EB43134233DBB283424FF0BD
:107A600000042DD9FFF78AF9FFF7CCFA287A174FCF
:107A7000174EC0F3C0003C803480D8B10120FCF721
:107A8000CDFC1448FCF77CFD0823134833803C8070
:107A9000FCF776FDFDF742FA1048FCF771FDFFF7A1
:107AA000D9FE00220E4B1A60FFF76BF90120F8BDDA
:107AB0005A23D3E7FCF7B2FC0A48EEE70020F6E7CA
:107AC0002046F4E79C08002038410020560300209F
:107AD00058030020B4BD0008C1BD0008CBBD00089C
:107AE0006C030020CDBD00082DE9F0410020FCF71B
:107AF00095FC4FF00005FFF785FA284E284F294CDA
:107B00000021A0894FF00A0835803D80FDF742F939
:107B1000B0FBF8F0022180B2FCF73BFD2248FCF7F5
:107B20002FFD0021A089FDF735F9B0FBF8F303FB29
:107B30001800012180B2FCF72CFD1C48FCF720FD49
:107B4000FCF770FD01380F280DD8DFE800F00819A8
:107B50000C1C0C0C0C1C0C0C0C0C0C0C0C1CA38921
:107B600001339BB2A381FFF775FE0420FFF7E8F80D
:107B7000A389B3F5B47F0AD24FF4B473A381BEE7EF
:107B8000A389013BEDE7BDE8F041FDF7A7BCA38960
:107B9000B3F5027FB3D94FF40273EFE75603002029
:107BA000580300209C08002086B9000822BE000867
:107BB0002DE9FF419846594B04461D6890F83D3029
:107BC0000E46202B174603D0022004B0BDE8F081FA
:107BD0000095192301225249FDF75EFF0028F3D1D9
:107BE00094F83C30012BEFD0012384F83C3023681B
:107BF00001211A682046D2075EBF1A6842F00102CE
:107C00001A601A6822F400621A60212284F83D206A
:107C1000402284F83E20002222646185A1F10111F6
:107C2000E162618DC4F824802185196841F4807176
:107C3000196000950A9B4FF00111FDF72DFF58B90F
:107C4000236806F0FE061E610A9A2B463549204637
:107C5000FDF7F4FE48B1236C236C042B4FF00003B6
:107C600084F83C3034D10120AFE7236803905A698F
:107C70000A9903929B692A4603932046039BFDF7CA
:107C8000B1FE40B1236C042BE6D12268136843F4A3
:107C900000731360E0E723681F61238D2A460A9969
:107CA00020467BB9FDF772FE78B92268136843F469
:107CB00000731360202384F83C0084F83D3084F87E
:107CC0003E0082E7FDF78EFE20B1236C042B1FD00F
:107CD00003207AE7616A26684B1C63620B78228D69
:107CE0003361638D501E013B9BB26385736980B223
:107CF0005B072085D1D50028CFD08B1C63624B78E1
:107D0000023A3361638D2285013B9BB26385C4E7F0
:107D10002268136843F400731360A4E7C040002096
:107D20000200100002000100F7B5164C054620685D
:107D30000E46174658B941F288331348009300683D
:107D400013460A462946FFF733FF03B0F0BDFFF79D
:107D5000C9FA0128F9D14FF4FA730B48009332465F
:107D60003B4629460068FFF723FF28B12568FDF749
:107D7000BDFF2846FFF79CF9206803B0BDE8F0403E
:107D8000FFF796B95C030020600300202DE9F04363
:107D90009946A24B89B01D6890F83D300446202BCF
:107DA0000E469046119F04D00226304609B0BDE829
:107DB000F0830095192301229949FDF76DFE0028F3
:107DC000F2D194F83C30012BEED0012384F83C3002
:107DD000236820461A68D10758BF1A68BDF84010BA
:107DE0005CBF42F001021A601A6822F400621A6055
:107DF000222284F83D20402284F83E200022226482
:107E000061858849C4F82490E162618D21851968F3
:107E100041F480611960196841F48071196000951E
:107E20003B464FF00111FDF737FE10BB2368F6B259
:107E300006F0FE021A617C492B463A462046FDF7C1
:107E4000FDFD08B1236C14E0236807905A69394698
:107E500007929B692A4607932046079BFDF7C2FDC0
:107E600080B1236C042B04D12268136843F400739F
:107E70001360236C042B4FF0000384F83C307CD15A
:107E8000012692E723682A46C3F810802046FDF7B2
:107E9000A9FD02460028E4D1216820460B6843F47E
:107EA00080730B6000953B464FF00111FDF7F4FD28
:107EB0000028DED1236846F001061E613A462B46B3
:107EC00059492046FDF7BAFD06460028BAD1228D51
:107ED00023689AB1012A27D11A6822F480621A60B5
:107EE00072B6236805905A6905929A690592059AB7
:107EF0001A6842F400721A6062B609E006905A6984
:107F000006929A690692069A1A6842F400721A60FA
:107F1000DFF81881238D1BBB202284F83C3084F8C5
:107F20003D2084F83E3040E7022A1A680ED142F420
:107F300000621A6072B6236804905A6904929A69C2
:107F40000492049A1A6822F48062D4E742F48062B0
:107F50001A6003905A6903929B690393039BD7E7C6
:107F6000032B65D8012B0AD12A4639462046FDF756
:107F7000E3FC18B3236C202B82D1032615E7022BD8
:107F800000953B464FF000024146204624D1FDF7C4
:107F900083FD0028F1D172B623681A6842F400729A
:107FA0001A601A69636A591C61621A70238D013B59
:107FB0002385638D013B9BB2638562B623681A6992
:107FC000636A591C61621A70238D013B2385638D9E
:107FD000013B9BB263859DE7FDF75EFD02460028ED
:107FE000CBD121680B6823F480630B6072B62368E1
:107FF0001969636A581C60621970238D0095013BF2
:108000002385638D4146013B9BB2638520463B46F9
:10801000FDF742FD0028BFD0AFE700BFC040002001
:10802000020010000000FFFF020001000400010038
:108030002A4639462046FDF77FFC00289AD123685E
:108040001A69636A591C61621A70238D013B23858A
:10805000638D013B9BB2638523685A6952077FF5A4
:1080600059AFACE72DE9F341184C054620680E46A0
:108070001746984668B941F28833CDE90083144821
:10808000134600680A462946FFF780FE02B0BDE8A5
:10809000F081FFF727F90128F8D14FF4FA73CDE901
:1080A00000830B483B46324629460068FFF76EFEC8
:1080B00028B12568FDF71AFE2846FEF7F9FF20686B
:1080C00002B0BDE8F041FEF7F3BF00BF5C03002043
:1080D0006003002000242DE98048754D91B00120F7
:1080E000FFF76EFB1920FEF72BFEA879A84600F0DB
:1080F0000100FFF765FB6F4B214610220CA81C60A6
:1081000002F0E2FD2146102208A802F0DDFD102257
:1081100021460DEB020002F0D7FDAB790024C3F33A
:108120008303092B84BF0922AB79274684BF62F3FE
:108130008503AB7126460325A146C82340F6E442D9
:1081400098F806A0CAF3830A03FB1A2301935A4B3B
:1081500093F800B0BBF1020F7DD1062302AAA8213B
:108160003220FFF77FFF9DF809309DF808409DF809
:108170000A7044EA03249DF80B309DF80C6047EA2E
:1081800003279DF80D3002AA46EA0326B5210123F4
:108190003220FFF767FF9DF8085024B2AD10013D73
:1081A0003FB236B2EDB298F8063003F00303022B6B
:1081B00006D1032D04D0B5FA85F04009FFF700FB86
:1081C000002010AB03EB490323F8104C23F8207C6C
:1081D00023F8306C02460146034609F1010909F013
:1081E00007090DF1300A0DF1200E0DF1100C3AF9CE
:1081F00002BB01305B443EF902BBC0B259443CF9BA
:1082000002BB08285A44F2D1002BB8BF0733C4EB95
:10821000E303002BB8BF5B420029B8BF0731C7EBAF
:10822000E1010029B8BF4942002AB8BF0732C6EBB6
:10823000E202002A1944B8BF5242019B0A44934209
:10824000BEBF1E4B1B4A1B684FF00A00B8BF13602D
:10825000FEF776FD71E7BBF1010FA4D1062302AA58
:1082600059463A20FFF7FEFE9DF808309DF8094078
:108270009DF80B7044EA03249DF80A309DF80D60C8
:1082800047EA03279DF80C3002AA46EA032610218C
:108290005B463A20FFF7E6FE9DF8085024B22B0615
:1082A0003FB236B24CBFC5F3410503257BE700BFA3
:1082B0009C080020C40500205802002038410020FE
:1082C000F0B590F83C30012B4FF0020337D080F826
:1082D0003D3003680E681A6A22F001021A621A6AB7
:1082E0005D689C6922F0020224F0730434438E68B6
:1082F0003243144EB3420BD1CE6822F0080232430F
:1083000025F44075D1E905673E4322F00402354368
:108310005D609C614C6809695C631A629A6942F00D
:1083200008029A619A6922F004029A619A690A43E2
:108330009A61012380F83D30002380F83C301846D4
:10834000F0BD00BF002C01402DE9F84F524D534FB6
:10835000FCF768F9002840F09B802B683A689B1A6C
:10836000632B40F296804E4A2B6812689B1A632B4F
:1083700040F28F80FFF760FB002864D1494C4A4EE1
:10838000637A002B61D063882088984228BF184602
:108390000923203800EB800090FBF3F080B2FCF75B
:1083A00005FE424A637A30601088002B53D0FCF7F8
:1083B00017FE4FF0050800EBC000B0FBF8F808F11D
:1083C00020081FFA88F84FF0000AFEF71BFE384B12
:1083D000DFF8FCB0A3F800A094F80890ABF800A078
:1083E000C9F3C009B9F1000F3BD00120FCF716F822
:1083F0003048FCF7C5F82E4B2F48A3F800A00823FF
:10840000ABF80030FCF7BCF803214046FCF7C1F89C
:10841000637A23B32948FCF7B3F82948FCF7B0F88E
:10842000FCF77CFD2748FCF7ABF8E3795BB33968D0
:1084300049B341F270732A68E079521A43439A4271
:1084400021D900233360012023E0638820889842EB
:1084500028BF1846A3E7FCF7C3FD8046B3E71A48D8
:10846000D9E74846FBF7DAFF1848FCF789F80321FB
:108470004046FCF78EF8637A1BB14846FCF71EF8BD
:10848000D3E70120FAE7FFF7E5F9FEF777FC5FE7AE
:108490000020BDE8F88F00BF38410020C40500204F
:1084A000C00500209C0800206C030020C8050020A7
:1084B0005603002024BE000830BE0008B1BE0008EC
:1084C000AABD000822BE0008AFBE000835BE0008E5
:1084D0005803002038B5104C104B627A05461888B6
:1084E0009AB1FCF77DFD052300EBC000B0FBF3F073
:1084F000203080B20321FCF74CF85DB1637A3BB1C8
:108500000748BDE83840FCF73BB8FCF769FDF1E7E8
:108510000448F6E738BD00BF9C080020C8050020CD
:10852000B1BE0008AFBE00082DE9F84FAB4C23796F
:10853000052B89BF25794FF47A756B1F41F2707551
:1085400098BF23795D43A0B900263746DFF8C8827B
:10855000DFF8C892FCF766F8102815D8DFE800F0BD
:1085600013B0B014AA141414111414141414141401
:108570001100FFF7E9FE0028E6D0994B1A68994BE5
:108580001A60BDE8F88F00274FF0000AA8F800A095
:10859000A9F800A0FEF736FD5046FBF73FFF924BCF
:1085A0001A8847F6BC739A42237A8ABF0136564628
:1085B000F6B213F0080FDFF868A200F097804FF0D2
:1085C000700B0120FBF72AFF8848FBF7D9FF9AF8C8
:1085D000C4210221B2FBFBF30BFB13235AF8230047
:1085E0004FF47A73B0FBF3F080B2FBF7D2FF804810
:1085F000FBF7C6FF9AF8C4210121B2FBFBF30BFB8A
:10860000132B5AF82B004FF0640A0A22B0FBFAF041
:10861000B0FBF2F302FB130080B2FBF7BAFF754820
:10862000FBF7AEFFA37913F03C0F1FD02379EBB11A
:108630007148FBF7A5FF6A496A4B704A08681B68D6
:108640001268281A9A422CBF8018C01842F2AC63F4
:10865000984242DD41F2707390FBF3F0013080B23A
:108660000221FBF796FF6648FBF78AFF0023A8F874
:10867000003008236348A9F80030FBF781FF012090
:10868000FFF728FF5C48FBF77BFFFCF747FC5E48E1
:10869000FBF776FF802EDFF88CA16BD95B48FBF7E8
:1086A0006FFFFFF7D7F80023CAF80030BDE8F84F96
:1086B000FEF767BB237A13F0010318BF1F4663E779
:1086C000B4F800A0FFF704F923881FFA8AFA9A4544
:1086D0003FF45AAFFCF702FF56E790FBFAF0013087
:1086E00080B20221FBF755FF4948BDE7494B1A7894
:1086F00002B3FCF7F3FB4048FBF742FF0120FFF712
:10870000E9FE9FB10220FBF7D9FE70229AF8C4015E
:10871000A189B0FBF2F302FB1303C9B200225AF89D
:108720002300FCF773FBFBF7E5FEB3E73248FBF7EA
:1087300027FFEAE770209AF8C4C1A189BCFBF0F3D7
:1087400000FB13C3C9B25AF82300FCF75FFBFBF729
:10875000D1FE5FB10220FBF7B1FE0120FFF7BAFEA8
:108760002548FBF70DFFFCF7B9FB93E72248FBF721
:1087700007FFF2E7FFF76EF8637AC7B1E08933B11C
:108780000923203800EB800090FBF3F080B2FCF767
:108790000DFCCAF80000FFF74FF900287FF4EDAE9A
:1087A000A37913F03C0F04D1FEF7E8FAD2E6208853
:1087B000E5E72379002BF7D0094A104913680968C7
:1087C0005B1AAB42F0D91368064A12689B1AAB4297
:1087D000EAD9FFF7B9FD0028E6D0D2E69C080020D0
:1087E00038410020C0050020C8050020A4BD0008B5
:1087F00086B90008D2BD0008AABD0008C405002043
:10880000C7BE000830BE000822BE0008ACBD00088C
:10881000B3BE000854030020560300205803002074
:10882000CC0500206C0300202DE9F74F0024274BD6
:10883000DFF8ACA025469846D146DFF8A8B01C80EA
:108840000026234B234F1B881D44FEF7DBFB5846B5
:10885000AAF800603E80FBF793FEC4F38503F2B2F2
:108860009342019305D95846FBF78AFE0136019BD6
:10887000F5E7FEF7EFFF01340A20FEF761FA0F2C4F
:10888000DED1B5FBF4F4144D24B22C82FCF77EFB50
:108890006424124A604312882B8AB0FBF2F01B1A40
:1088A0001BB22B822B8AA8F80030FEF7ABFB00230B
:1088B0001020A9F800303B80FBF700FEFEF7CAFF4E
:1088C000204603B0BDE8F04FFEF73ABA4C02002054
:1088D000C8050020580300209C080020B80800208C
:1088E0005603002086B900082DE9F04F00264FF00E
:1088F000FF334FF001083746B2463446354685B05F
:108900000190029300964FF00C0B0BFB05FB019BB3
:1089100003EB0B09D9F80820002A00F0A680BAF171
:10892000000F40F0A2805046FBF778FD50495148B7
:10893000514B0A680068A3F800A0121A4F4BB2F519
:10894000967FA3F800A036D3019B53F80B000028B4
:1089500031D007B90F68FBF7FBFB454A484912685D
:10896000897AD21B11F0010F14BF01210221B2FB41
:10897000F1F200EB40008000543000B212B292FBE2
:10898000F0F100FB1120029B0FFA80FA534503908F
:108990001AD0FEF737FB00220398374BC0F1600076
:1089A0001880364B4FF001081A80019B53F80B00DA
:1089B000FBF7E6FD08E0FEF725FBD9F80820904715
:1089C0004FF001084FF0FF3AFBF72CFE421E8346A2
:1089D000864218BF00240F2A0ED8DFE802F00810E4
:1089E0000D140D0D0D240D0D0D0D0D0D0D2FC7B911
:1089F000D9F804201AB390474FF0000921E087B955
:108A00000135EDB2F8E71A4E009B3268D21A2244C3
:108A10001E2AF1D9D9F804309847336803340093FB
:108A2000E4B20027E8E71249009B0A68D21A224400
:108A30001E2AE1D90135EDB20B68EFE700274FF0B0
:108A40000109C4F11E02092AD8BF1424B8F1000F8D
:108A500004D0FEF7FFFE0420FEF772F9CDF808A05F
:108A60005E464FF00008CA464DE705B0BDE8F08FFE
:108A700038410020C0050020560300205803002084
:108A80009C0800202DE99F484820FEF7D3F840B30A
:108A9000002101230060C0E90F31FDF7EBFBD0E9B5
:108AA0000F34634302688163D5181B1B1344C360F2
:108AB000FF2382604FF0FF3280F8443080F8453069
:108AC00000F118034361C0E90623036200F12C039F
:108AD00045600161C0E90A32C0E90C334162FDF72B
:108AE000B5FB9F4B9F4F1860FEF7E2FAFCF734FA94
:108AF0009D4D3880A8799D4E00F00100FEF760FE84
:108B00003468029704F5C87433689C420AD9FEF7AA
:108B1000A7FE00B93468FBF785FD00B13468FEF7A5
:108B20002DF9F1E7AB799B090DD0AB799B09012BAE
:108B300002D10020FFF7F8FCAB799B09022B02D190
:108B40000120FFF7F1FC0027B9463C46DFF86482BC
:108B5000FBF768FD8246002849D14FF00009844B9D
:108B60000021A8891C60FCF715F9029B1888FCF706
:108B700037FA3128834612D8AB7913F03C0F0ED068
:108B80007C4A336812689B1A41F27072934206D98C
:108B90007949336809685B1A934200F2D180AF23A8
:108BA000764A5370FEF72EFA754BA8F800401C80E9
:108BB000297AC1F38001002900F002810120FBF72E
:108BC0002DFCBBF5EB7F40F2BD806E48FBF7D8FC77
:108BD00008236B4A6C481380A8F80040FBF7D0FCD0
:108BE000FCF79CF9FEF736FEFEF7C8F8B0E7AF23B6
:108BF000624A00205370FBF711FCB9F1000FAED1AF
:108C00000AF1FF3ABAF1070FA9D801A353F82AF0E5
:108C10001F8D00082B8D00085F8B0008158D000844
:108C20005F8B00085F8B00085F8B0008318C0008A9
:108C30004FF00009DFF880B1DFF880A1FEF7E2F91C
:108C40004F4B01201C80A8F80040FBF7E7FB58467B
:108C5000FBF796FC08234A4AA8F8004013804B4BC8
:108C600053F82900FBF78CFC09F1FF330C2B14D8C7
:108C7000DFE803F0070B2A2C2E3336393F42464AF1
:108C80004C000521424B188805E0424B1868FDF75F
:108C900083FC052180B2FBF77CFCFEF7DBFDFBF7D4
:108CA000C1FC02283FF459AF01280AD10E2209F174
:108CB00001095FFA89F9B9FBF2F302FB13995FFA34
:108CC00089F9FEF75BF8B9E7334BDFE7334BDDE7B4
:108CD00030686423B0FBF3F0DBE7264B1868F8E755
:108CE0000621029BCFE7029B1888FCF779F9052142
:108CF000D1E7FCF713F9D0E7FCF748F90321CAE7FD
:108D0000274B01211878C6E7E87DF7E75046FBF7C7
:108D100037FCC2E7FEF7DCFDFCF7E0FB1FE70020B5
:108D2000FFF702FC4FF0010919E71E48FFF7DCFDD1
:108D3000FCF7D4FBFCF7D2FB2A8A1B4B1A80F1E725
:108D4000AE232DE71948FBF71BFC0020FFF7C2FB01
:108D50001748FBF715FC28880321FBF71AFC37E7B7
:108D60005C030020C80500209C080020384100203A
:108D70006C030020C4050020C00500207002002004
:108D800058030020CAB90008C1BD0008D0BE0008C1
:108D900004410020500200205C0200205402002008
:108DA000580200205C0100204C02002030BE000868
:108DB000DBB9000856030020BCB90008C2B900089E
:108DC00008460391FBF72AFB314B93F800A0BAF158
:108DD000000F3ED02F4B54220093039910230C20F8
:108DE000FBF7DAFAFCF77AF8BBF1370F05D8BBF1DD
:108DF0002C0F4BD9002F3FF4F5AE274B1B68BAF16F
:108E0000000F32D003F136025F3302F8014F9A426D
:108E1000FBD1224B1B6803F136025F3302F8014F8E
:108E20009342FBD13823A8F800301D4B1C802F7AC9
:108E3000C7F3400747B119223168B1FBF2F302FBD7
:108E400013130F2B7FF6CEAE0020FFF743FB012755
:108E5000C8E6144B54220093514610235046FBF7AA
:108E60009BFA5423A8F80030BCE75A1E283302F8B6
:108E7000014F9A42FBD1094B1B685A1E283302F856
:108E8000014F9A42FBD1A8F80040CEE70027A9E69F
:108E900054030020E1B900084C03002050030020D7
:108EA00058030020BBBA00080148FFF71DBD00BFF2
:108EB000380000200148FFF717BD00BFE000002088
:108EC0000148FFF711BD00BF1C0100200148FFF75A
:108ED0000BBD00BF8C0000202DE9F74F8246FBF749
:108EE00037F9244E00EB40003368840000200093E3
:108EF000FBF794FA204B002501224FF0FF319846F2
:108F00001E4F5434A4B23D801D80336800981B1A54
:108F10001B48807A10F0010F14BF01200220B3FB20
:108F2000F0F31BB293FBF4F004FB103B0FFA8BF948
:108F300049450AD0FEF766F8CBF1600350463B8006
:108F4000A8F80050FBF71CFB01220192FBF76AFB1B
:108F5000019A40B922B1FEF77DFC0420FDF7F0FE36
:108F600000224946D1E7431E5842584103B0BDE8AC
:108F7000F08F00BF38410020580300205603002026
:108F80009C08002008B5094BDB7D052B04D1BDE80A
:108F900008400748FFF7A8BC0648FFF79DFF18B137
:108FA000BDE80840FFF740BC08BD00BF9C0800209A
:108FB000BC000020D4BD00082DE9F8433A48FFF773
:108FC0008BFF00286DD0FFF72FFCA023374C384EC5
:108FD000384F394DA375A37D4FF4AF7013F0FF03E5
:108FE00008BF84233380FBF7E1FF3860FBF71AFBEF
:108FF00001380F2846D8DFE800F0414845084545CC
:10900000450845454545454545084FF00108A37DC0
:10901000C82B3DD9C823A3754FF00009274BA3F8EF
:109020000090274BA3F80090FDF7ECFF4846FBF7B4
:10903000F5F9244B93F80090B9F1000F2DD0224898
:10904000FBF79EFA2846FBF79BFAA07D0421FBF76D
:10905000A0FA2846FBF794FAB9F1000F1FD01B487D
:10906000FBF78EFAFEF7F6FBFDF788FEB8F1000F6E
:10907000B1D0BDE8F8431648FFF72EBFA37D0133FA
:10908000DBB2A3754FF00008C1E7A37D013BF7E712
:10909000A37D642BC0D86423BDE70C48D0E70A4801
:1090A000DEE7BDE8F88300BFD4BD00089C080020BF
:1090B000B80800206C030020AABD00085603002059
:1090C000580300205403002014BE000816BE0008F8
:1090D000B5BE00082DE9F8433248FFF7FDFE002831
:1090E0005ED04FF00009304EDFF8D4802F4FFFF7ED
:1090F0009BFB3588FDF786FF0120A8F80090A7F8B4
:109100000090FBF78BF92A48FBF73AFAFEF7A2FB2F
:109110001420FDF715FE0A24FDF733FEFBF736FF9A
:10912000368865436643B0FBF4F4A4B2731BC4F104
:109130006404B3FBF4F4FDF765FF1E48A8F8009043
:10914000A7F80090FBF71CFAA0B208240621FBF751
:1091500020FAFEF77FFBC820FDF7F2FDFDF711FEB8
:10916000FDF750FF1448A8F80090A7F80090FBF70F
:1091700007FAB0B20821FBF70CFA1048A8F80090E3
:109180003C80FBF7FDF9A8B22146FBF702FAFEF797
:1091900061FBC820FDF7D4FDBDE8F843FDF7F1BD44
:1091A000BDE8F883D4BD0008C8050020580300209E
:1091B0007EBE0008A3BE000816BE000814BE00084C
:1091C0005603002070B51748FFF786FEE8B1FDF79B
:1091D00021FF0020FBF722F90023134A134C1380D0
:1091E000134A14481380FBF7CBF9FEF733FB2568CD
:1091F000FBF718FA0646C83556B1FBF713FA0646D0
:10920000FDF7BCFD23689D42F6D270BD002EFCD157
:10921000FBF708FA0646FDF7B1FD23689D42F5D23B
:10922000F3E700BF3ABE0008560300203841002093
:109230005803002075BE00082DE980484FF6FF074F
:10924000454A464D1368464E43F010031360EA68E2
:10925000444C3A403243A5B0EA60FBF759FFA2699B
:10926000002142F00102A261A2696FF00B0002F03E
:1092700001020492049BEB68DFF8F8803B40334323
:10928000EB60FAF7ABFF00216FF00A00FAF7A6FFD8
:1092900000216FF00900FAF7A1FF00216FF0040030
:1092A000FAF79CFF00216FF00300FAF797FF0F21F8
:1092B0006FF00100FAF792FF0F214FF0FF30FAF73D
:1092C0008DFF636813F00C0F07D0636803F00C0385
:1092D000082B51D16368D8034ED423680122236838
:1092E00023F0F80343F0800323601F4B1A60D8F883
:1092F0000020636A9B0740F17D834FF4FA521B4BB9
:109300001B68B3FBF2F3099300BF099A531E09933C
:10931000002AF9D1636803F00C03082B39D0144BF1
:109320001A601A46D8F8001023689F0100F169837B
:10933000636823F4741343F46013636001231360C0
:10934000D8F8002023689E0123D4D8F800309B1A57
:10935000022BF7D91DE000BF0020024000ED00E025
:109360000003FA050010024080044242340000204D
:1093700060004242C04000200122BB4B1A60D8F876
:10938000002023689907A9D4D8F800309B1A022B33
:10939000F7D9B64A136813F0060F00F039836368F3
:1093A00043F4E0636360636843F46053636063683D
:1093B00023F0F003636023689D0100F136834FF4CE
:1093C0007A726368AA4F23F4404343F40043636016
:1093D0003B68B3FBF2F3013BB3F1807F09D2F0218C
:1093E000A44A5360A44B83F82310002393600723FF
:1093F0001360A04A0F2113684FF0FF3043F00403BD
:109400001360FAF7EBFE4FF080729C4E4FF00309A9
:109410004FF0020B73689A4D23F0E06343F08063D2
:109420007360A36918A943F02003A361A369954859
:1094300003F020030893089BA3694FF4807A43F05C
:109440000403A361A36903F004030793079BA369C3
:1094500043F00803A361A36903F008030693069B86
:109460002A61CDE91899CDF86CB0FCF7A3F87368C0
:1094700018A943F0E06343F40043736048F2FF73BC
:109480002846CDE91839FCF795F84FF6FF7318A96F
:109490007D4801261893FCF78DF84FF4F0432846D9
:1094A00018A9CDE91836CDF86C90FCF783F84FF089
:1094B00000632B614FF080532B614FF000532B6101
:1094C0004FF080434FF000092B614FF4107318A93F
:1094D000CDE918391A96FCF76DF818A9CDE918A648
:1094E000CDF86CB0FCF766F84FF080721E202A6150
:1094F0002A61FBF7E9FFC5F810A063690521334332
:10950000636163690B2033400593059BFAF766FEA0
:109510004FF400635D4C052123601020FAF75EFED6
:109520004FF48033052123601120FAF757FE4FF4E2
:109530000033574A23605749574B1046C2E900137E
:109540004FF48043C2E90299C2E90439C2E906999D
:10955000C2F82090FCF7C6FA4FF460214F4C504BF4
:109560002046C4E902A6C4F81490E161C4F804904E
:109570002360C4F810B0FCF763FC94F82410444A4C
:10958000B142A946924618D0226884F824609168B6
:10959000CB0700F1B28243498968CE0700F1AD8262
:1095A0003F4B9A4240F0A982536823F4702343F45E
:1095B00080335360002384F82430002194F8243051
:1095C0000B91012B0FD00123226884F82430536BB8
:1095D00023F01F0343F007035363136943F460034D
:1095E000136184F82410002194F824300A91012B8F
:1095F0000FD00123226884F82430536B23F478734E
:1096000043F490735363136943F06053136184F818
:109610002410012308250426CDE918531A930025A8
:109620004FF4405318A91D48CDE91E531D951B95B5
:109630001C96FCF79DF8022318A918481A9519934F
:10964000FCF796F8032318A914481993FCF790F82F
:1096500018A912481996FCF78BF822680F4D536829
:1096600043F0800353601FE00000424200200240AC
:109670003400002010E000E000ED00E000000140B8
:109680000008014000140140000C014000E100E02E
:109690009C04002000540040F824010070030020C6
:1096A00000240140002801402846FCF72BFD064617
:1096B0000028F9D1C04DC14B4FF0010B2B604FF486
:1096C0008073C5E9023B4FF46023EB6102236861BC
:1096D000686028462B61FCF7B3FB95F824300D96A3
:1096E0005B450ED02A6885F824B0536B23F01F0326
:1096F00043F008035363136943F0E063136185F893
:109700002460002195F824300C91012B0FD0012307
:109710002A6885F82430536B23F4787343F49073EC
:109720005363136943F06053136185F824100123D8
:1097300008210026CDE918134FF0040B1A934FF4BB
:10974000405318A99C48CDE91E631D961B96CDF881
:1097500070B0FCF70DF8022318A997481A961993D0
:10976000FCF706F8032318A993481993FCF700F8AF
:1097700018A99148CDF864B0FBF7FAFF8E4E304639
:10978000FCF7C0FC83460028F9D108238C4EDFF893
:1097900050E26422C6E900E34FF40073C6E90323F4
:1097A0008023B0603046B361FBF77CFC96F83C3018
:1097B000012B14D001210223326886F83C1086F870
:1097C0003D30936823F47F4323F0770393609368DD
:1097D00023F00703936086F83D1086F83CB000261E
:1097E0007748FBF78DFD7648FBF78AFD0EA9744894
:1097F000CDE90E66FAF7B2FD60213223CDE91813E8
:10980000042318A96E481C931A964FF0020BFEF71A
:1098100057FD1023CDE9133B032313A96948169381
:10982000FBF7C8FE684A6648536823F4406343F078
:10983000E06343F400635360FAF778FD4FF0804033
:1098400040F21132614B40F23B1CC3E900024FF47D
:109850000072C3E903C2802218469A619E60FBF73A
:1098600021FC5A4B93F83C20012A13D0012019689F
:1098700083F83C0083F83DB08A6822F47F4222F0EE
:1098800077028A608A6822F007028A6083F83D00C6
:1098900083F83C604FF0000B4C4E3046FBF730FD38
:1098A0003046FBF72DFD13A93046CDE913BBFAF77F
:1098B00055FD602240F23113CDE9182304230DEB4E
:1098C000020130461C93CDF868B0FEF7F9FC042382
:1098D00060221C9396F83C30CDE9182B012BCDF873
:1098E00068B0314628D0012386F83C30022386F840
:1098F0003D3033681A6A22F480521A621E6A5A682E
:1099000026F4005C324ED869B34204BF22F480468C
:109910001D9A20F4E64008BF46EA821240F4C04097
:109920005A60D861199A1A64C3F820C0012381F8DB
:109930003D30002381F83C300B682448DA68254E1E
:1099400042F00102DA601A6842F001021A60FAF786
:10995000EDFC0B681C20DA680F2142F01002DA607F
:109960001A6A22F480521A621A6A42F480521A6207
:10997000174A934202BF5A6C42F400425A641A6872
:1099800042F001021A60FAF729FC4FF08052124BA4
:1099900006211A604CF6CC406422104BB260C6E936
:1099A0000031186045F25550186059609A60D8F837
:1099B0000010326816E000BFA0030020002801401C
:1099C0007C050020000C0140000001403C05002007
:1099D000002C0140F004002000E100E000300040D5
:1099E00000040040D368002B40F08C804AF6AA2384
:1099F00013608DE0D8F800309B1A022B7FF679AC0B
:109A0000C7E4D8F800305B1A022B7FF68DACC0E4B7
:109A1000136823F0070343F002031360136803F095
:109A20000703022B3FF4BBACC9E441F28831636801
:109A300023F0030343F002036360D8F80020636857
:109A400003F00C03082B2ED1694A136803F00703B7
:109A5000022B2ED8636818AD43F4E063636063683B
:109A600023F460536360634B03F110062A461868C1
:109A70005968083303C2B3421546F7D140F20123B7
:109A8000ADF84C30626802F00C03082B1ED05A4B24
:109A900062685A49C2F303128A5CD340584A136081
:109AA000FBF736FB8BE4D8F800309B1A8B42C6D903
:109AB00085E4136823F0070343F00203136013687F
:109AC00003F00703022B7FF47AACC3E724A9C2F3A7
:109AD00083430B44D00313F8301C0BD56268464B0C
