:020000040800F2
:2000000028310020613300087D3300088133000885330008893300088D330008000000000B
:20002000000000000000000000000000913300089533000800000000993300089D33000878
:2000400000F09ABF00F026B800F024B800F022B800F020B800F01EB800F01CB800F01AB8DF
:2000600000F018B800F016B800F014B800F012B800F010B800F0F2BF00F0D8BF00F083BF7A
:2000800000F091BF01F014B801F01CB8A1330008A5330008DFF800F000000000F8B500F07E
:2000A0006BFFDFF85C4A04F50A750146284600F03FFDDFF8506A4FF400520021304600F053
:2000C000E7FF06F200474FF4B0720FF6AC41384600F0E8FF0B222946384600F0E3FF0FF262
:2000E000600518222946304600F0DCFF1822294606F5007000F0D6FFDFF80C0AC6F8160413
:20010000A022DFF8081A06F5C06000F0CBFF50220FF2FC1106F5006000F0C4FF40220FF25E
:20012000402106F5206000F0BDFFA0680021C171017241716068C1604161C1618161F1BD7A
:20014000F8FFFFFFFFFFFF6F0007800009A0000BC000FFFFFFFF0F0070B50D46B5F5805F37
:2001600008D14FF400720146DFF89809BDE8704000F098BFB5F5205F08D14FF40072014698
:20018000DFF88C09BDE8704000F08CBFB5F5804F08D14FF400720146DFF87809BDE8704068
:2001A00000F080BFB5F51A4F3CD3DFF858694FF40072014606F5C06000F074FFDFF840497C
:2001C0004FF40072314604F1280000F06BFFA068017A002926D1C07900280FD1B5F52A4F75
:2001E00004D300F04FFAA168087270BD2088002818D000F047FAA168087270BD012811D19B
:200200002088002807D0B5F51C4F04D300F093FBA168087270BDB5F52C4F03D300F08BFBAC
:20022000A168087270BD10B50446002907D14FF400720FF64411BDE8104000F033BFB1F572
:20024000805F07D14FF40072DFF8B818BDE8104000F028BFB1F5205F07D14FF40072DFF836
:20026000B018BDE8104000F01DBFB1F5804F07D14FF40072DFF89C18BDE8104000F012BFB2
:20028000B1F5004F0CD14FF40072002100F000FFA0220FF644412046BDE8104000F002BF6F
:2002A000B1F5024F0CD14FF40072002100F0F0FE50220FF25C012046BDE8104000F0F2BEEB
:2002C0006FF40240401841F2FF7290420DD24FF400720021204600F0DBFE40220FF28001E3
:2002E0002046BDE8104000F0DDBEB1F51A4F4FF4007206D3DFF820182046BDE8104000F021
:20030000D1BE00212046BDE8104000F0C1BE00007B00380031004200320031003700330070
:2003200033002D0036003800440039002D0034003000350039002D00410035003700330066
:200340002D004500410030004400320033003200450039003300320031007D00000000004E
:200360002E202020202020202020203200478A5A7945794500008A5A794504000000000090
:200380002E2E2020202020202020201000478A5A7945794500008A5A794500000000000088
:2003A0002DE9F84F2024DFF85C672AE0522805D1697A442902D1A97A592921D0552805D19C
:2003C000697A532902D1A97A452919D0452805D1697A522902D1A97A522911D04E2805D132
:2003E000687A4F2802D1A87A542809D04520287252206872A872DFF8080780680321017290
:020000040800F2
:200400002034B4F5007F80F21381A01900F20045002028732878E528F2D00028F0D0E87AF6
:200420002028EDD1287A482836D1697A452933D1A97A582930D1DFF8C876A87EE97E00EB16
:2004400001200005000D38804FF47A7000F03AFEB8680021C171017A002904D002290FD067
:20046000042907D012E052212972442169725921A9720BE04521297252216972A97205E069
:200480004E2129724F2169725421A972E97D491CE97503210172B3E741287BD1697A442918
:2004A00078D1A97A522975D1DFF85476A87EE97E00EB01200005000D38804FF47A7000F0EE
:2004C00001FED7F80880002088F8070088F80800D7F80490C9F800004FF0020A07E098F8B1
:2004E000080040F0040088F808000AF1010ABAF10A0F27DA96F800063028F0D196F801062B
:200500007828ECD10AEB060090F80016A1F13002D2B20A2A08D3A1F14102D2B2062A03D32F
:200520006139C9B20629DAD2D9F800100901C9F800108B4690F8000600F024FA5844C9F845
:200540000000D2E798F8080000281AD1D9F80000DFF8C815884203D300F025FD002806D101
:200560004E2028724F2068725420A8720EE0B8680121C17153202872452068725420A87260
:2005800004E04520287252206872A872B8680321017235E7422830D1697A49292DD1A97A5E
:2005A0004E292AD1DFF85875A87EE97E00EB01200005000D38804FF47A7000F083FDB86805
:2005C000C179002906D14E2129724F2169725421A97205E052212972442169725921A97234
:2005E000C179022901D10021C171C179012901D10221C1710321017202E753287FF4D6AEF4
:20060000697A45297FF4D2AEA97A54297FF4CEAEDFF8EC74B868C17900297FF4F1AE5521C5
:200620002972532169724521A97203210172E7E6BDE8F18F10B5DFF8C844A068007A032871
:200640001ED100F04AFE0028FBD1002000F047FD4FF4C87000F036FD012000F040FD00F04F
:2006600049FEA068002101724171616800224A61CA6011462180C179022901D11146C1716D
:2006800010BD00002DE9F843DFF8744460680021016106E0A0680021417160680169491C0A
:2006A000016166683069B0F5007F80F04181A56869790E29F1D8DFE801F0091221313E5376
:2006C00060768299A7C5D3E0EA00E6E7DFF83414401890F800063A2840F02881D3E0DFF889
:2006E0002414401890F8000600F04CF90001A870002070616879401C6871CEE7AE78DFF8D5
:200700000414401890F8000600F03CF98019A870A878E8706879401C6871BEE7DFF8E41304
:20072000401890F8000600F02DF9000170606879401C6871B1E77768DFF8C813401890F8CD
:20074000000600F01FF9C0197060E87871680818E8707068000270606879401C68719CE7EE
:20076000DFF8A013401890F8000600F00BF9000128716879401C68718FE72F79DFF88413D9
:20078000401890F8000600F0FDF8C01928717068297908187060E87829790818E870687957
:2007A000401C687179E7D749401890F8000600F0E9F8000168706879401C68716DE76E78A4
:2007C000D049401890F8000600F0DCF880196870E87869780818E8706879401C6871A978F5
:2007E00000297FF45AAF801C687156E7C549401890F8000600F0C6F800017169E2688854FF
:020000040800F2
:200800006879401C687148E77769D4F80C8017F80890BC49401890F8000600F0B3F84844A2
:2008200007F80800E878716911F808100818E8707069401C7061A978884224D26879401EB8
:2008400068712AE7EE78AF49401890F8000600F099F806EB0010E8706879401C68711CE777
:20086000EE78A849401890F8000600F08BF88019E870E878002859D105E0A249401890F875
:2008800000060D2852D16879401C687105E79D49401890F800060A2848D10020E871687888
:2008A000042809D1D4F80C8098F8000098F80110090401EB0060B0606878012838D0002807
:2008C0007FF4E8AE7068B168081870609349884201D202202DE00020706103E06068416940
:2008E000891C416160684169A26892789142BFF4D1AE4068081800F01EFD60684169E26897
:200900008B5C406808184D1CA668B678B54204D143F47F4100F0FEFC06E08918497803EBA0
:20092000012189B200F0F6FC0428D7D0042000E00020BDE8F28338B50024714D00E0A41CF8
:20094000B4F5007F1CD268680168C068401800F0F2FC68686B49611891F8002691F801169E
:2009600002EB012189B20268C068801800F0D2FC6968CA68921CCA600428E0D0042032BD7B
:20098000002032BD10B585B0044600A80FF2D411112200F0F5FCA4F16100C0B21A2800D2E6
:2009A000203C002000E0401CC0B2102805D200A9415CE4B2A142F6D100E0002005B010BDF6
:2009C00038B54F4CA2681378002B05D1400260614802A061012010701078012833D12569C7
:2009E0006068806900280FD161692846FFF71BFC40229821284600F0EEFC60684FF4E0713A
:200A000081614020E0610CE040229821E069401900F0E1FC6068816940398161E069403017
:200A2000E0614021012000F09FFD3021012000F00BFD606940306061A0694038A061384801
:200A4000816840398160A06900280BD16068002181610846E0616061324803210170A06814
:200A60000021017031BD70B5254C6268D3694033A5682E78002E05D1400220624802606260
:200A8000012028702878012827D1002007E02569254E865D4E55401CD169491CD161D169E7
:200AA0009942F4D3214D2888216A41182162636A181A6062C00506D10020D061A1F500715A
:200AC0002069FFF749FB164881682A88891A81604FF44051022000F0CBFC606A002803D064
:200AE00010480078042809D160680021C1610121002000F0B7FEA0680021017070BD000067
:200B0000000000201C040020188DDD40D80E00081C0600201C0800201C0A002000400008B1
:200B2000EC2C0020B82C0020582C0020BA2C002010B41C2203E0303300F8013B121F1346C9
:200B40005BB2002B0AD421FA02F303F00F031C460A2CF0DB373300F8013BEFE70021017001
:200B600010BC70473031323334353637383941424344454600000000EB3C904D53444F5313
:200B8000352E3000020108000200020010F80C00010001000000000000000000000029A2D2
:200BA00098E46C4E4F204E414D4520202020464154313220202033C98ED1BCF07B8ED9B8B0
:200BC00000208EC0FCBD007C384E247D248BC199E83C01721C83EB3A66A11C7C26663B077A
:200BE000268A57FC750680CA0288560280C31073EB33C98A461098F7661603461C13561EC7
:020000040800F2
:200C000003460E13D18B7611608946FC8956FEB82000F7E68B5E0B03C348F7F30146FC118A
:200C20004EFE61BF0000E8E600723926382D741760B10BBEA17DF3A66174324E740983C70C
:200C4000203BFB72E6EBDCA0FB7DB47D8BF0AC9840740C487413B40EBB0700CD10EBEFA0AD
:200C6000FD7DEBE6A0FC7DEBE1CD16CD19268B551A52B001BB0000E83B0072E85B8A5624C1
:200C8000BE0B7C8BFCC746F03D7DC746F4297D8CD9894EF2894EF6C606967DCBEA03000098
:200CA000200FB6C8668B46F86603461C668BD066C1EA10EB5E0FB6C84A4A8A460D32E4F757
:200CC000E20346FC1356FEEB4A525006536A016A10918B4618969233D2F7F691F7F6428796
:200CE000CAF7761A8AF28AE8C0CC020ACCB80102807E020E7504B4428BF48A5624CD136155
:200D000061720B40750142035E0B497506F8C341BB000060666A00EBB04E544C4452202087
:200D2000202020200D0A52656D6F7665206469736B73206F72206F74686572206D6564696E
:200D4000612EFF0D0A4469736B206572726F72FF0D0A507265737320616E79206B65792005
:200D6000746F20726573746172740D0A00000000000000ACCBD855AA4446552056335F34EB
:200D8000325F4408000000000000000000008A5A794500000000000042200049006E006655
:200DA000006F000F007272006D006100740069006F0000006E000000015300790073007495
:200DC0000065000F00726D00200056006F006C00750000006D00650053595354454D7E3194
:200DE00020202016005E63705D455D45000064705D45020000000000412E005F002E005440
:200E00000072000F007F6100730068006500730000000000FFFFFFFF7E3120202020202053
:200E200054524122004A8A5A7945794500008A5A7945050000100000E552415348457E3141
:200E400045464D1200478A5A7945794500008A5A7945040000000000412E005400720061C5
:200E60000073000F00256800650073000000FFFFFFFF0000FFFFFFFF5452415348457E311D
:200E80002020201200478A5A7945794500008A5A7945040000000000412E006600730065E6
:200EA0000076000F00DA65006E0074007300640000000000FFFFFFFF46534556454E7E3143
:200EC00020202012004D8A5A7945794500008A5A79450D00000000002E2020202020202036
:200EE00020202010005E63705D455D45000064705D450200000000002E2E20202020202079
:200F000020202010005E63705D455D45000064705D450000000000004247007500690064AB
:200F20000000000F00FFFFFFFFFFFFFFFFFFFFFFFFFF0000FFFFFFFF0149006E0064006532
:200F40000078000F00FF6500720056006F006C00750000006D006500494E444558457E3150
:200F600020202020007263705D455D45000064705D4503004C00000041480168426851189E
:200F800080684018704710B50446FFF7F5FF0A233C4A01463C4800F017F8844201D101202B
:200FA00010BD002010BD10B5FFF7E6FF37490C680A23344A0146344800F006F8844201D1EF
:200FC000012010BD002010BDF0B403F11506C3F14304C3F151050A330FE0C0EB40104FEA1E
:200FE000670C07EB9C7C4FEAAC0CA7EB8C07FF0021FA07F7FFB238185B1C1BB21F46B742A3
:020000040800F2
:20100000EBDB0DE0C0EB40104B1001EB93739B10A1EB8301C90022FA01F1C9B20818641C28
:2010200024B22146A942EDDBF0BC704770B504460D461646FFF7B7FF002801D1002070BD4C
:20104000FFF79AFF0023324601462046FFF7BCFF854201D1012070BD002070BD70B5044665
:201060000D461646FFF79FFF002801D1002070BD0023324629462046BDE87040A4E7000096
:20108000E8F7FF1F011020D502DEC0DEFC3F000810B5044610460A460146204600F03EFC00
:2010A000204610BD10B5044600F05AF9204610BD0FF27C11082802D201EB0010704701F141
:2010C0008000704700214FF6FF7302E04F4A1360491C40F2DC5242439142F7D370474C49E0
:2010E0004FF400620A614FF480520A61002808680BD120F4404040F440500860086820F4A8
:20110000402040F440300860704720F4804040F430400860086820F4802040F430200860BC
:201120007047000080F308887047704710B500F029FC4FF4803000F03DFC00F055FC102020
:2011400000F0BCFC022000F0AFFC324C6068324908436060206840F080702060012000F025
:201160005CFC012000F05CFC392000F076FC0028FAD0022000F057FC00F05CFC0828FBD158
:201180001420606140F60D20A0614FF42000E0610120BDE8104000F052BC80B501464FF083
:2011A000006000F05DFD4FF4C06000F013FD14208DF8000001208DF801008DF802008DF8B6
:2011C000030000A800F00BFD13208DF8000001208DF8010000208DF8020001208DF80300BD
:2011E00000A800F0FCFC01BD0C484FF6FF71C1600B4901600B4941600B484FF6FE71C160A5
:201200000A4901604FF08831416070470C10014004080140001002400A846800000801408F
:201220008888880883B8BB8B000C014003888344312E33300000000000000000000000002C
:2012400053544D3332463130335438000000000056474D393631360000000000000000000F
:201260004D4355277320414443000000000000004E6F6E6500000000000000000000000077
:2012800056332E3432410000000000000000000030000000000000000000000000000000C0
:2012A0005669727475616C204D534400000000002D2D2D2D2D2D0000000000000000000035
:2012C0000A48012101600021016041604FF4E051074A1180016000207047044801210160B9
:2012E000002141600321016000207047405C0040222D00200448C0610221017203490162D3
:20130000034A426208680047C42C00200C0300206403002038B504460D46104800F03AFC57
:20132000052802D0342000F014FC29462046BDE8344000F0F5BB10B50446A0050CD10748EC
:2013400000F028FC052802D0342000F002FC2046BDE8104000F0C5BB10BD0000A086010079
:2013600062B38B0708D0521E11F8013B00F8013B00F024808B07F6D1830740F0208000BFFF
:20138000103A07D330B4B1E83810103AA0E83810F9D230BC530724BFB1E80810A0E8081005
:2013A00044BF51F8043B40F8043BD20724BF31F8022B20F8022B44BF0B7803707047083AE2
:2013C00007D3B1E80810083A40F8043B40F804CBF7D25307E4E710B4490001F1804101F51E
:2013E000C041521C521009E010F8013B10F8014B43EA042321F8023B891C521EF4D110BC4B
:020000040800F2
:201400007047490001F1804101F5C041521C521004E051F8043B20F8023B521EF9D17047A0
:201420004FF6F8710840DFF8A4110860704710B4DFF89C2152F8203048F68F142340194379
:2014400042F8201010BC704710B4DFF8842152F8203048F6BF742340CC0601D583F01003C3
:20146000890601D583F0200342F8203010BC704710B4DFF85C2152F820304BF68F7423400B
:20148000CC0401D583F48053890401D583F4005342F8203010BC7047DFF8341151F820207D
:2014A0004BF68F731A4082F4405241F820207047DFF81C1151F8202048F68F631A4041F807
:2014C00020207047DFF8081151F82020520409D551F8202092B248F68F731A4042F4804209
:2014E00041F820207047DFF8E81051F82020520609D551F8202092B248F68F731A4042F095
:20150000400241F820207047DFF8C020126892B202EBC000DFF8BC204908490042F8101090
:201520007047DFF8A820126892B202EBC000DFF8A8204908490042F810107047DFF88C102D
:20154000096889B201EBC000DFF8881051F8100080B270471D49096889B201EBC0001E495D
:2015600051F8100080B27047184A126892B202EBC0001A4A42F810107047144A126892B2CB
:2015800002EBC000164A02EB40003F290AD34A091F23194200D1521E92B2910241F400414E
:2015A000016070474A08C90700D5521C92B29102016070470549096889B201EBC0000849C8
:2015C00051F810008005800D70470000505C0040005C004000600040086000400460004075
:2015E0000C6000400146C9B2090241EA1020704780B5AC4890F8201002290FD022D3042953
:2016000002D014D305291DD1002180F820104FF440510220BDE80440FFF72ABFC17B2829E1
:2016200010D1816A406ABDE8044000F073BB0121002000F017F94FF440510220BDE804400C
:20164000FFF716BF01BD38B5964CE57B0220FFF7B1FF60840246D8219348FFF7D2FE94F8B8
:201660002000002802D0012803D016E0BDE831401FE02A2D05D1A16A606ABDE8344000F03E
:2016800078BB012000F01AF92421052000F03AFB00210220BDE83440E4E0022000F00EF92B
:2016A0002421052000F02EFB00210220BDE83440D8E010B500207B4C03E07B49415C01554D
:2016C000401C618C8842F8D3784862684260A26882601F290DD0022000F0F0F80020206055
:2016E0001A21052000F00EFB00210120BDE81040B8E0E07B282801D02A280FD1617CA27C19
:20170000120442EA0161E27C41EA0221227D11436162A17DE27D42EA0121A1622168644ABE
:2017200091427AD163490968627B914204D3A17B491EC9B210290BD3022000F0BFF82421C4
:20174000052000F0DFFA00210120BDE8104089E000284AD003282CD008285AD00A2858D0DE
:2017600012282AD0152854D01A282ED01B2828D01D284ED01E2824D023282ED0252830D026
:20178000282836D02A283AD02F283ED0552840D05A281ED088283CD08A283AD08F2838D0FE
:2017A0009E2836D0A82834D0AA2832D0AF2830D033E0BDE8104000F09DBABDE8104000F0AA
:2017C00063BABDE8104000F0A1BABDE8104000F089BABDE8104000F089BABDE8104000F077
:2017E00062BABDE8104000F06DBABDE8104000F008BBA16A606ABDE8104000F08BBAA16A0F
:020000040800F2
:20180000606ABDE8104000F0B4BABDE8104000F0DDBABDE8104000F0F8BA022000F04EF840
:201820002021052000F06EFA00210120BDE8104018E010B50C4622469821FFF7CCFD21465D
:201840000120FFF791FE30210120FFF7FDFD1548032180F8201015488168091B81600021EB
:20186000017310BD10B50C46104B1349196018730D2298211846FFF7AEFD0D210120FFF729
:2018800073FE0848052180F82010002C08D0042180F8201030210120BDE81040FFF7D4BDFA
:2018A00010BD0000982C0020582C0020EC2C002055534243102D00205553425380B5002877
:2018C00003D002280ED006D301BD10210120BDE80440FFF7B9BD4FF480510220BDE80440D0
:2018E000FFF7C6BD10210120FFF7AEFD4FF480510220BDE80440FFF7BBBD50F8041B61B176
:2019000050F8042BD30744BFA9F101039A18002342F8043B091FFAD1EFE7704762F30F2281
:2019200062F31F42401810F0030308D0C91A1FD3DB0748BF00F8012D28BF20F8022D130096
:2019400030B414461546103928BF20E93C00FAD8490728BF20E90C0048BF40F8042D890062
:2019600028BF20F8022D48BF00F8012D30BC7047C91818BF00F8012DCB0728BF00F8012DAC
:20198000704700004048016841F00101016041683E4A1140416001683D4A114001600168DD
:2019A00021F480210160416821F4FE01416000218160704734490A6822F480320A600A6866
:2019C00022F480220A60B0F5803F03D0B0F5802F05D07047086840F48030086070470868EB
:2019E00040F4A0200860704710B582B0002000900446312000F031F80099491C00910028C2
:201A000003D10098B0F5A06FF3D1312000F025F8002800D00124204616BD1E4908607047A8
:201A20001E49086070471C490A68920850EA8200086070471848006800F00C0070471849F8
:201A400008607047174A0029116802D008431060704721EA000010607047002142090A4B2D
:201A6000012A01D11A6804E0022A01D11A6A00E05A6A012300F01F0003FA00F0024200D0A9
:201A80001946084670470000001002400000FFF8FFFFF6FE000042420410024060004242E9
:201AA000D800424218100240DFF8D0100A6802F038020A600A68104308607047DFF8BC101A
:201AC0000A6822F010020A600A68104308607047DFF8AC00DFF8AC100160DFF8AC100160B7
:201AE000704770B5054640F6FF76304600F052F8042814D1DFF89440206840F0020020606E
:201B00006560206840F040002060304600F042F8012804D0216841F6FD721140216070BDBD
:201B200070B504460D460F2000F034F804280FD1164E306840F00100306025800F2000F00B
:201B400029F8012804D0316841F6FE721140316070BD0F490860704704200D490A68D207DC
:201B600001D5012070470A68520701D5022070470968C90600D503207047000000200240EC
:201B80000420024023016745AB89EFCD102002400C20024010B50446FFF7DEFF04E000F089
:201BA0000BF8FFF7D9FF641E012801D1002CF6D1002C00D1052010BD81B000200090FF20F5
:201BC000009002E00098401E009000980028F9D101B07047274908432749086070472DE9BB
:201BE000F04105782B460121C278002A2FD0224A126802F4E062C2F5E062120A23F00303F5
:020000040800F2
:201C00001B4C1F5905F00305ED00FF26AE40B74390F801C0C2F1040E0CFA0EFC90F802E066
:201C20004FF00F0828FA02F202EA0E0242EA0C021201AA4032403A431A51007842110F4B86
:201C400000F01F0001FA00F043F8220006E05811064A05F01F03994042F82010BDE8F0811E
:201C6000074A1140084307490860704780E100E000E400E00000FA050CED00E000E100E06A
:201C800080FFFF1F08ED00E08749087CC00702D58648052105E00FF23020C97C252900D350
:201CA0002421FFF7C6BD824800218180022181710021C1714172022181720021C1720C21C8
:201CC000FFF7B7BD7B48002101800F218170FF21C17000218180022181710021C171082110
:201CE000FFF7A7BD04217448FFF7A3BD08217348FFF79FBD6C48C17C132900D31221704832
:201D0000FFF797BD6E4A90701173704701210020FFF7A8BD70B504460D466A4E307800289F
:201D20001FD12A462146282000F08CF800281FD05D48007B000607D5022030702946204670
:201D4000BDE87040FEF73CBE0220FFF7B7FD24210520FFF7D7FF01210846BDE87040FFF782
:201D600081BD022804D12046BDE87040FEF728BE70BD10B5534C2278002A20D10A460146B3
:201D80002A2000F05FF800281FD04748007B000608D4012020704FF440510220BDE8104013
:201DA000FFF766BB0020FFF789FD24210520FFF7A9FF00210120BDE81040FFF753BD012A00
:201DC00003D1BDE81040FEF74EBE10BD80B536488168002908D1007C400705D401210020F0
:201DE000BDE80440FFF73EBD0220FFF767FD24210520FFF787FF00210120BDE80440FFF786
:201E000031BD01210020FFF72DBD80B526488168002903D10020FFF751FD09E0007B00065B
:201E200003D50020FFF74AFD02E00220FFF746FD20210520FFF766FF00210120BDE8044044
:201E4000FFF710BD80B55118B1F5805F11D92A2802D10220FFF732FD0020FFF72FFD2121C2
:201E60000520FFF74FFF00210120FFF7FBFC002002BD0D498968B1EB422F12D02A2803D18F
:201E80000220FFF71BFD02E00020FFF717FD24210520FFF737FF00210120FFF7E3FC002039
:201EA00002BD012002BD0000982C0020FC2C0020F0030020042D0020180400200C04002087
:201EC000DC030020B82C002000800202200000005669727475616C20444655204469736BCA
:201EE00000000000000000000000000010B5DFF8C047002804D1206801210182002010BD28
:201F0000DFF8B00700680068804720680A3010BD80B5DFF89C070068C178DFF89C27527859
:201F20008A420DD38278002A0AD18288002A07D18172DFF88007006840688047002002BDE3
:201F4000022002BD10B5DFF86847002804D1206801210182002010BDDFF8580700688068B8
:201F6000804720680C3010BD10B5DFF844472068C1784079DFF84427126892699047216851
:201F80008A7A002A14D0002812D1087900280FD1887800280CD1DFF81C070068C068804745
:201FA00020684179C1722068C1780173002010BD022010BD10B5DFF8F8160968002803D184
:201FC00002200882002010BDDFF8F4460020208008787F22104218D1487A0146890603D5CB
:201FE000002141F0020121702178400609D541F001002070DFF8BC060068006980472046E5
:020000040800F2
:2020000010BD01F0FE002070F4E700F07F02012A01D1204610BD00F07F0002281BD14879B2
:2020200000F00F01DFF89C26000652F8210008D500F030001028DDD1002040F001002070D2
:20204000D8E700F44050B0F5805FD3D1002040F001002070CEE7002010BD70B5DFF8500640
:202060000068017811F07F0105D1417A01F0DF014172002070BD022954D14188002951D138
:20208000017900294ED1417921F08005DFF834460A0654F8252002D502F0300201E002F46A
:2020A0004052DFF814361B789D423BD2002A39D0807A002836D0080654F825000BD500F044
:2020C0003000102827D12846FFF70DFA30212846FFF7BAF91FE000F44050B0F5805F1AD1DB
:2020E0004BF68F76002D0CD1DFF8DC0590F82C100020FFF742FA2068304080F44050206046
:2021000009E02846FFF7DEF954F82500304080F4405044F82500DFF89C0500684069804705
:20212000002070BD022070BD38B5DFF884050268537923F08000DFF88C151C0651F82040AA
:2021400002D504F0300401E004F44054DFF868552D78A84207D25588002D04D1002C02D03A
:20216000927A002A01D1022032BD1A0651F8202007D548F6BF731A4082F0100241F82020FA
:2021800006E04BF68F731A4082F4805241F82020DFF82005006880698047002032BD80B5A3
:2021A000DFF80C050068417A41F020014172DFF804050068C0698047002002BDDFF8F0240D
:2021C0001268538A002804D18888C01A108200207047086818187047F8B5DFF8D4442068DD
:2021E00000F110052E88A968080016D0002E14D0A888864200D906463046884707462888B3
:20220000801B28806888301868800020FFF7A2F9324601463846FFF7F4F8288800280CD0D7
:20222000DFF8A8044FF44051018000210846FFF79BF9DFF89C04302101802888A9888842D9
:2022400003D3206803210172F1BD002803D0206805210172F1BD0FD1206806210172DFF838
:202260007404006880B2DFF87014002241F81020DFF85C0430210180F1BD2DE9F041DFF891
:202280003044206800F110052F88002F08D1007A042805D10726DFF838041021018027E008
:2022A000A888B84201D3042600E00226874200D907463846A968884780460020FFF73EF98E
:2022C0003A4601464046FFF786F839460020FFF74BF92888C01B2880688838186880DFF832
:2022E000F00330210180DFF8E4034FF44051018020680672BDE8F08138B50220DFF8B04317
:2023000021684D780A787F231A4230D1092D02D1FFF7FEFD3FE0052D0FD1C878802808D201
:202320008878002805D18888002802D1887A002801D008204AE000202DE0032D0BD1CA78CC
:20234000012A28D18A88002A25D1497A890622D5FFF725FF1FE0012D1DD1CA78012A1AD151
:202360008A88002A17D1497A89060DD413E002F07F01012904D10B2D0DD1FFF7F5FD0AE0BA
:20238000022908D1012D02D1FFF767FE03E0032D01D1FFF7C9FE002809D02846DFF81C13C6
:2023A000096849698847032801D109200EE0002801D008200AE00620C649096889B2C64A1B
:2023C000002342F81130C24930220A802168087231BD38B5B64C206841780025062916D11C
:2023E00001787F22114279D18078012803D1B3480068C56972E0022803D1B0480068056A81
:020000040800F2
:202400006CE003286AD1AD480068456A66E0002940D14288002A3DD1C288022A3AD1027980
:20242000002A37D101787F22114204D18288002A01D1AA4D52E001F07F02012A0DD129460F
:2024400040799E4A126892699047002846D12068807A002842D0A14D40E001F07F010229EA
:202460003CD1407900F00F0100F07002954B000653F8210002D500F0300001E000F4405086
:202480008D4B1B78994229D2002A27D1002825D0924D23E0082905D100787F2108421DD183
:2024A0008F4D1BE00A2919D1017801F07F01012914D1817A002911D0418800290ED10179DF
:2024C00000290BD1C188012908D1294640797B4A126892699047002800D1824D20682900F9
:2024E00007D000214182206885610846A847002006E040787149096809698847032805D04C
:2025000021680A8A4FF6FF739A4203D120680921017231BD022801D0002A02D1082008728A
:2025200031BD087800060CD5C888904200D2088220686249096891F82C108182BDE8314046
:202540009BE60320087261484FF44051018031BD38B56048006880B2634931F8100040001D
:2025600000F1804505F5C045514C2068017A092917D015F8011B0170206815F8011B4170F1
:20258000AD1C35F8020BFFF72DF821684880AD1C35F8020BFFF726F82168888020686988AB
:2025A000C1802068012101722068C088002802D1FFF7A2FE01E0FFF70CFFBDE8314042E042
:2025C00010B53B4C2068017A022901D0042904D1FFF753FE2068007A16E0062913D14178A3
:2025E00005290AD101787F22114206D1C07800F044F830480068006A804730480068806851
:202600008047082000E0082021680872BDE8104019E010B5264C2068007A032801D0052870
:2026200004D1FFF7D9FD2068007A08E0072805D122480068C0688047082000E00820216890
:202640000872BDE8104080B51F4890F82C100020FEF793FF16480068017A082906D11B4957
:202660004FF480520A801A4910220A80007A092801D1012002BD002002BD70B40E49097864
:202680000022104C48F68F7609E01346DBB254F82350ADB235401D4344F82350521C8A42CE
:2026A000F3D340F080001149086070BC70470000E02C0020E82C002014040020E42C002037
:2026C000182D0020005C00400C0300201C2D00201E2D0020505C004004600040B51F00088A
:2026E000ED1E0008451F0008086000404C5C004070470000F8B58478303CE4B20A2C00D261
:202700002246C478303CE4B20A2C00D2234600783038C0B20A2800D20146002413E02018B6
:202720000FF2C415182606FB01477F5D80F8607006FB02477F5D80F8907006FB0346755D5A
:2027400080F8A850641C5548182CE8DB002409E00C220146204600EB40039800C0B200F0D5
:2027600004F8641C082CF3DBF1BD70B50C46154600F1200600213046C0B200F054F86D1C76
:2027800021462846C0B200F03DF8044601213046C0B200F048F821462846C0B2BDE87040AD
:2027A00030E04049086040483C2202700968C9B23B4800F0D1B910B58CB000A80FF2F0013C
:2027C0003022FEF7DDFD0020354903E000AA825C4254401C2E28F9DB344C4FF48071204699
:2027E00000F02BFA0220FEF76DFC4FF48071204600F021FA0220FEF765FC2E20FFF7D1FF13
:020000040800F2
:202800000CB010BD10B50C46254940220A70012203E014F8013B5354521C8242F9DBFFF7DD
:20282000C0FF204610BD30B583B000AA0FF2B00330CB30C28DF80500012902D1B1208DF866
:2028400001000020164903E000AA825C4254401C0828F9DB0820FFF7A4FF37BD10B50021FC
:202860002020FFF7E0FF0E4C402020707F220021601CFEF70DFC8020FFF793FF0121202033
:20288000FFF7D1FF402020707F220021601CFEF7FFFB8020BDE8104083E700003402002000
:2028A0001C2400200C2D0020242D00200008014080AE80D5805280A8800F80C080D3800086
:2028C000804080A0808D801480DA8002808180E080D980F180DB803080A480A680AF0000EC
:2028E00080B080218020807F00E010080810E00000000000000F102020100F0000000000FA
:20290000001010F800000000000000000020203F2020000000000000007008080888700060
:20292000000000000030282422213000000000000030088888483000000000000018202090
:2029400020110E00000000000000C02010F800000000000000070424243F2400000000009A
:2029600000F8088888080800000000000019212020110E000000000000E010888818000086
:2029800000000000000F112020110E000000000000380808C8380800000000000000003F29
:2029A0000000000000000000007088080888700000000000001C222121221C000000000059
:2029C00000E010080810E000000000000000312222110F0000000000000000000000000072
:2029E00000000000003030000000000000000000022000E0401EFDD1704738B504460D4608
:202A0000012D03D12146534800F015F9002D05D121465048BDE8344000F00FB931BD80B5BE
:202A200001210820FFF70EF8C020ADF8000014208DF8030003208DF8020000A9454800F03F
:202A4000A3F800214020FFF7D8FF01218020FFF7D4FF01214020FFF7D0FF0520FFF7C8FFD9
:202A600000218020FFF7C9FF0520FFF7C1FF00214020FFF7C2FF01BD80B500214020FFF75A
:202A8000BCFF00218020FFF7B8FF0520FFF7B0FF01214020FFF7B1FF0520FFF7A9FF012136
:202AA0008020FFF7AAFF0520FFF7A2FF00214020FFF7A3FF0520BDE8024099E738B504463F
:202AC00008250EE000218020FFF797FF0520FFF78FFF01214020FFF790FF0520FFF788FF3C
:202AE00064002846451EC0B200280AD000214020FFF783FF2006E5D501218020FFF77DFF20
:202B0000E4E700214020FFF778FF01218020FFF774FFFF2400E0641EE4B2002C18D005207D
:202B2000FFF766FF80210B4800F07EF80028F2D101214020FFF761FF0520FFF759FF002189
:202B40004020FFF75AFF0520FFF752FF012032BD002032BD000C014070B504460D461646D0
:202B6000FFF75DFF7000C0B2FFF7A8FF03E014F8010BFFF7A3FF2846451EC0B20028F6D1BF
:202B8000BDE8704078E70000F0B40023CC7804F00F02E40601D58C7822430C88E4B2002CF2
:202BA0001CD0046803E0482D00D106615B1C082B13D2012505FA03F635460F882F40AF420E
:202BC000F4D19D000F27AF40BC4302FA05F52C43CD78282DE7D14661E8E704600B88B3F5A3
:202BE000807F1FD34468002319E0012503F1080605FA06F635460F882F40AF420ED19D000B
:020000040800F2
:202C00000F27AF40BC4302FA05F52C43CD78282D00D14661CD78482D00D106615B1C082B7D
:202C2000E3D34460F0BC704700228068084200D00122104670470161704741617047000011
:202C400080B500F007F99348006800218172FEF737FB9148002141604FF404418F4A118044
:202C600001608F480021016001BD10B58D4800218172884800688C49C97941720020FEF717
:202C8000CFFB4FF400710020FEF7D1FB20210020FEF7DAFB18210020FEF743FC834C94F8C2
:202CA0002C100020FEF769FC58210020FEF72CFC0020FEF7FDFB0020FEF7EEFB002101205B
:202CC000FEF7B5FB98210120FEF71EFC20210120FEF7BAFB00210120FEF7CAFB002102201B
:202CE000FEF7A5FBD8210220FEF71BFC94F82C100220FEF742FC4FF440510220FEF7B8FB5D
:202D000000210220FEF7A0FB94F82C100020FEF734FC0020FEF7C0FB0020FFF7AEFC60489B
:202D20000121016062486349016063480021017010BD58480068807A002800D1704780B568
:202D40005748052101600120FEF7CDFB0220FEF7B9FB59480021017001BD55480068554910
:202D6000884202D00220FEF7A9BD70474C480421016070477047704780B546490A68137883
:202D800003F07F03212B10D1FE280ED1508800280BD19088002808D1D088012805D10FF23F
:202DA000A100030003D1022002BD022002BD9061086800214182084600F042F8002002BD3D
:202DC00080B5344909680A7802F07F02212A18D1FF2816D14888002813D18888002810D1A4
:202DE000C88800280DD10120FEF77DFB0220FEF769FB2F482F4901602F48002101700846CD
:202E000002BD022002BD002901D002207047002801D002207047002070472849FFF7CEB9A8
:202E20002749FFF7CBB91B490968C978062901DB00207047234A02EBC101FFF7BFB9000026
:202E4000002805D11348006801210182002070471D4870471D48016842688068002900D1BF
:202E6000704710B41A4B99700C0A1C710C0C9C71090E19729A72110A1973110C9973110E04
:202E800019749874010A1975010C9975000E187610BC7047E02C0020405C0040222D00204F
:202EA000142D0020C42C0020703100080C030020982C002055534243B82C0020FC03002095
:202EC000040400203C030020102D0020E8F7FF1F880300202DE9F0416F4C48F6BF764BF6B0
:202EE0008F7721E05FEA084006D5206840F68F7108402060FFF78DFB206838402988CA04DC
:202F000001D580F48050890401D580F400502060206830406988CA0601D580F01000890652
:202F200001D580F020002060616C5C480180090478D547F6FF716164018811F00F01584DAE
:202F4000297046D1574D216801F440512980216801F0300169802168394081F40051216088
:202F60002168314081F0200121600088C00616D4206880B248F60F7108402060FFF720FBBB
:202F8000D4F800801FFA88F818F4084FB4D0206840F68F7108402060FFF7DAFAACE7D4F8B6
:202FA00000801FFA88F85FEA086007D5206880B248F60F7108402060FFF702FB5FEA085097
:202FC00090D5206840F68F7108402060FFF7C0FA92E754F821801FFA88F85FEA08400DD5E4
:202FE00054F8210040F68F72104044F8210028782D4901EB800050F8040C80475FEA08602E
:020000040800F2
:2030000092D5287854F8201089B248F60F72114044F820102878254901EB800050F8040CA4
:20302000804781E7BDE8F08170B51D4C1A4D2BE047F6FF720260088800F00F00207055F8CF
:203040002060B6B231040DD555F8201040F68F72114045F820102078134901EB800050F857
:20306000040C804730060FD5207855F8201089B248F60F72114045F8201020780B4901EBBA
:20308000800050F8040C80470948026803490A801204CDD470BD0000005C0040202D002013
:2030A000252D00201C2D0020C0030020A4030020445C00402DE9F04500F10801026801EB10
:2030C0008202406800F001034008400002EB80000025AA460024A0460126374602E000270F
:2030E000F44511D1824201D1BDE8F08552F804CB03B1CC4452F804EBE644F1E70D686D18F3
:20310000091D51F804ABAA445545F7D066B115F9014B0026012705E00D686D18091D51F835
:2031200004ABAA445545F7D0002C12D50FB115F8018BF445D3D00CF8018B641CF9D40AE082
:20314000F44518BF5545CBD015F8018B0CF8018B641E002CF4D50126C2E7000012010002A5
:203160000000004083042057000201020301000009022000010100C03209040000020806CC
:2031800050040705810240000007050202400000040309042603530054004D0069006300BF
:2031A00072006F0065006C0065006300740072006F006E0069006300730000002603530017
:2031C00054004D003300320020004D006100730073002000530074006F00720061006700A5
:2031E0006500000010035300540020004D00610073007300FDF79AFFFDF7F6FF1A480068BC
:2032000080050ED5FDF7CFFE18480168184A1140B1F1005F04D144680068FDF783FFA047C2
:20322000FEE70A20FDF74EFF0020FDF758FFC820FDF748FF0120FDF752FF0020FDF7ADFF8A
:20324000FEF758F8FCF72AFFFFF7B5FAFFF706FB0FF22000FFF74EFAFEF73AFCFDF7A0F85B
:20326000FDF7E8F9F8E7000008080140004000080000FF2F332E34330000000070B50D4C8D
:203280000D4D286820800D4E208831880840400505D50B48406880474FF6FF30286020881B
:2032A00031880840000403D5BDE87040FFF712BE70BD0000202D0020445C0040222D00202D
:2032C0000C030020FEF794B9FEF7BDB910B5074979441831064C7C44163404E0081D0A6820
:2032E000511888470146A142F8D110BD080000003000000007E6FFFF0C2900001C0400203E
:2033000000000000B1FDFFFF02000000020000009800000096010000000000201C0400008E
:2033200000F009F8002801D0FFF7D0FF0020FFF761FF00F002F80120704700F001B80000FD
:203340000746384600F002F8FBE70000C046C046024A11001820ABBEFBE700BF2600020003
:2033600001488047014800472D11000871330008C046C046C046C046FFF7D2FFFFF7FEBF29
:20338000FFF7FEBFFFF7FEBFFFF7FEBFFFF7FEBFFFF7FEBFFFF7FEBFFFF7FEBFFFF7FEBF95
:2033A000FFF742BEFFF76ABFFC000F1C2C00203C2C0020452C00201C2A0020810081008183
:2033C000008100DC000104FCFC04070C0810E00000407FFC40076020180F000004FCFB845C
:2033E00007E40C100000407F40FC000003FC000204FC04FB000604FC0400001F20FB400146
:020000040800F2
:20340000201FFA00016060F600016060F9000078FB04018878FC0007605048444241407018
:20342000F000016060F60002E01808FD04020818E0FD00020F3020FD400220300FFB0002E7
:203440000808FCF7000240407FFD40E50027412C00086B2C0008752D0008772D0008792D0F
:203460000008C12D0008072E00081B2E0008212E0008272E0008FC000040FD00049031000E
:203480000804FD00049431000826FD0004BC31000826FD0004880300201AFD0004E4310034
:2034A0000810FD0032F1260008332D0008F1260008F1260008F12600085B2D0008F126003A
:2034C00008F12600086D2D00081A03530054004D0033003200310030F30038C5320008F131
:2034E000260008F1260008F1260008F1260008F1260008F1260008F1260008C9320008F1F0
:20350000260008F1260008F1260008F1260008F126000870FA00000AF1000008FC00000296
:20352000FD00045C31000812FD00047031000820FC000006FA00040301000003FD00000015
:20354000FFFFFFFFFFFFFFFFFFFFFFFFFFFFFFFFFFFFFFFFFFFFFFFFFFFFFFFFFFFFFFFF8B
:20356000FFFFFFFFFFFFFFFFFFFFFFFFFFFFFFFFFFFFFFFFFFFFFFFFFFFFFFFFFFFFFFFF6B
:20358000FFFFFFFFFFFFFFFFFFFFFFFFFFFFFFFFFFFFFFFFFFFFFFFFFFFFFFFFFFFFFFFF4B
:2035A000FFFFFFFFFFFFFFFFFFFFFFFFFFFFFFFFFFFFFFFFFFFFFFFFFFFFFFFFFFFFFFFF2B
:020000040800F2
:020000040800F2
:2040000098350020E1BA000881BA000883BA000885BA000887BA000889BA000800000000AD
:204020000000000000000000000000008BBA00088DBA0008000000008FBA000891BA000840
:2040400021BB000825BB000829BB00082DBB000831BB000835BB000839BB00083DBB0008D0
:2040600041BB000845BB000849BB00084DBB000851BB000855BB000859BB00085DBB0008B0
:2040800061BB000865BB000869BB00086DBB000893BA000875BB000879BB00087DBB00086F
:2040A00081BB000885BB000889BB00088DBB000897BA00089BBA000899BB00089DBB000866
:2040C000A1BB0008A5BB0008A9BB0008ADBB0008B1BB0008B5BB0008B9BB0008BDBB000850
:2040E000C1BB0008C5BB0008C9BB0008CDBB0008D1BB0008D5BB0008D9BB0008DDBB000830
:20410000E1BB0008E5BB0008E9BB0008EDBB0008F1BB0008F5BB0008F9BB0008FDBB00080F
:2041200001BC000805BC000809BC00080DBC0008DFF8240B40697047DFF81C1B486170477F
:20414000DFF8141B08707047DFF80C0B0078704738B901EBC100052190FBF1F000F5A070D8
:2041600006E001EB8100A0F5C860092190FBF1F000B2704710B5DFF8E44A00206060A06185
:2041800001F0BFFE08B9082005E0042807DB012001F0B1FE0620BDE8104002F02BB80120C3
:2041A00002F028F8DFF87C0EC069606110BD30B583B004460D46062100A802F025FA2A46D0
:2041C0003FA100A802F034FA05F1090100A8DFF8882A12786AB9642D07DA0A2D03DA002DA6
:2041E00005D5002901D443210CE0432113E043210EE0642D09DA0A2D03DA002D07D5002934
:2042000003D445218170202105E0452103E04521417020218170C17000A9204601F0AFF9DF
:20422000DFF8380A1421016037BD70B582B0DFF8F84D60780FF28C0120B9009110236022E3
:2042400000210BE0012802D16068009002E0022808D10091102360220021002002F04EFA58
:20426000606025E0032823D10025542616E01C200FF2F01100FB051060600E21F01D02F089
:2042800064FA6068009010230E220021F0B202F035FA6060F61F0A2002F0E8FB20788642ED
:2042A000E5DA0E3020706D1C062DDEDB002020706078401CC0B2042808BF0020607073BD93
:2042C000256400000000000000000000000000000000000000000000000000000000000055
:2042E000000000000000000000000000000000000000008898BFBF98880000000080808080
:2043000080808000000000000000000000000000000000000000000000000000000000001D
:204320000000000000206060606060609090909090909090909090909090909090909090DD
:204340009090909090606060606060606070F8888482828383838383838282828283838372
:204360008383838282828282868484848484848484848484848484848484828282828282D4
:204380008282FE00000000000000000000000000000000000000000000000000000000001B
:2043A0000000000000000000000000000000000000000090B0FEFEB0900000000080808001
:2043C00080808000000000000000000000000000000000000000000000000000000000005D
:2043E00000000000002060606060606090909090909090909090909090909090909090901D
:020000040800F2
:204400009090909090606060606060606070F88884828283838383838382828282838383B1
:20442000838383828282828286848484848484848484848484848484848482828282828213
:204440008282FE0000F0F00000F0F0F00000FCF8F0E0C080000F0F00000F0F0F00003F1FFD
:204460000F0703010000000000000000000000000000000000000000000000000000000022
:204480000001FFFF01010101010181C67E380080FFFF818101010101000000000020202036
:2044A000E0E0008040402060C04000808080FFFF81808080000000000000008040402020FD
:2044C00020404080000000003F7F448484848484844727000000008040402020204040C094
:2044E0000000000020C3828684848C8C887830000000008040402020204040C000000000E1
:2045000020C3828684848C8C88783000000000000000008080C0602010180C86E0E0E0ECDA
:20452000FCF2F3F1F0F8ECE4E4E2E30100000000000000000080C0402030180CC0C0C0D83B
:20454000F8E4E6E3E1F1D8C8C8C4C603FCFCFC00000000C0382625010101010101010102AE
:204560007F7F7F0609090909090939484848483010080804FCFC00000000C0382625010198
:2045800001010101010102027F7F0609090909090939484848483010080804040000000026
:2045A000000000008080C06030180C8600E0E0ECF4F6F6FBF5E8E8E4E2E2E100000000002C
:2045C00000000000000080C06030180C00C0C0D8E8ECECF6EBD1D1C8C4C4C201FEFEFE80BF
:2045E0004040605854020202020202843F3F3F00010101010107050506020100FEFE804007
:204600004060585402020202020284843F3F0001010101010705050602010000F8B50C469E
:204620008578303DEDB20A2D38BF2A46C578303DEDB20A2D38BF2B4600783038C0B20A2867
:2046400038BF01460026DFF8D45C18200FF2780700FB016C1CF807C006EB050E8EF860C04A
:2046600000FB026C1CF807C08EF890C000FB036C1CF807C08EF8A8C0761C182EE8DB10271B
:2046800044B902230C220821284600F0ABFD05F1D80000E028460026009010230C22002147
:2046A0000C2000F095F8761C082EF5DB7F1EE7D14CB94FF47A7002F0D9F902F08DF8BDE852
:2046C000F14001F08ABDF1BD00E010080810E00000000000000F102020100F000000000055
:2046E000001010F800000000000000000020203F2020000000000000007008080888700063
:20470000000000000030282422213000000000000030088888483000000000000018202092
:2047200020110E00000000000000C02010F800000000000000070424243F2400000000009C
:2047400000F8088888080800000000000019212020110E000000000000E010888818000088
:2047600000000000000F112020110E000000000000380808C8380800000000000000003F2B
:204780000000000000000000007088080888700000000000001C222121221C00000000005B
:2047A00000E010080810E000000000000000312222110F0000000000000000000000000074
:2047C000000000000030300000000000000000007043C0B201F092BF10B582B00FF210000A
:2047E000002400F0F5F9641C062CFAD313BD0000000000C0F038080404040408081C00003C
:020000040800F2
:204800000000000F1F3060404040402030080000000000C0F0180C0404040C18F0C00000CE
:20482000000000071F306040404060301F07000000000004FC1C38E0C0000004FC04000054
:20484000000000407F40000001071E387F00000000000004FCFC84848484E4040C1000006C
:20486000000000407F7F400000000300000000000000000000040404FCFC040404000000A7
:2048800000000000004040407F7F404040000000000000C0F03808040404040C1C00000072
:2048A000000000071F3860404042423E3E0202002DE9F04184B004468846062101A801F062
:2048C000A3FEE4A62246314601A801F0B1FEDFF85C7701AD387828B9642CA8BF432008DA60
:2048E000432004E0642CA8BF452002DA4520A8702020E87001A9012000F06AFEB878411C74
:20490000B9700FF2540100F0F3FD292001F0F6FEB878032804BF0020B870062101A801F0E3
:2049200073FE4246314601A801F082FE387828B9642CA8BF432008DA432004E0642CA8BFE2
:20494000452002DA4520A8702020E87001A9382000F03EFEBDE8FF8100003060C0800000DE
:2049600000000000000000000000180C06030100000000000000000000003060C0803060A9
:20498000C0800000000000000000180C0603190C060301000000000000003060C08030601B
:2049A000C0803060C08000000000180C0603190C0603190C060301000000183060C0800075
:2049C000000000000000000000000C060301000000000000000000000000183060C0983091
:2049E00060C080000000000000000C0603010C0603010000000000000000183060C09830BB
:204A000060C0983060C0800000000C0603010C0603010C060301000010B582B0012808BFE5
:204A20000FF22C0103D0022808BF0FF2E401009100F03EFA012400F0CBF8641C062CFAD38E
:204A40004FF47A7002F012F8BDE8134001F0C5BBE01864E282010101010182E26418E0003F
:204A6000030C1021274E5850584E2721100C0300F00C0201010101020F00000000000000B9
:204A8000030C081010101008060000000000000000601010909090E00000000000000000A1
:204AA000000E11111010081F101800000000000000010101FF000000000000000000000055
:204AC000001010101F10101000000000000000000000000000000000000000000000000057
:204AE0008080808080808080808000000000000001077980008079070100000000000000B4
:204B0000000000071C0700000000000000000000E018040212214181814122120418E00086
:204B2000030C10202844424141422428100C0300F00C0201010101020F0000000000000046
:204B4000030C081010101008060000000000000000601010909090E00000000000000000E0
:204B6000000E11111010081F101800000000000000010101FF000000000000000000000094
:204B8000001010101F10101000000000000000000000000000000000000000000000000096
:204BA0008080808080808080808000000000000000010719E0B00D03010000000000000033
:204BC0000010181700011618100000000000000000901023102200212001C0B201F08EBD72
:204BE00070B582B00FF2780501F088F9022808D00ED304280AD006D3052808BF0FF20C1497
:020000040800F2
:204C000006E02C4604E00FF2901401E00FF2142405F18C00009000F04BF9DFF8EC5B287895
:204C200080B90226142000FB06402838009010230A2200210A20FFF7CBFD761C092EF1DBB1
:204C4000012004E05021102001F07FFD0020287073BD00002564000028030020D83000205D
:204C600001FF00E11FE000FF010000011E0100011E010000006010109090E0000000000E86
:204C8000111110081F1800001010F04020101030000010101F1010000000000010F0201054
:204CA000101010E00000101F10000000101F100000001013F30000000000000010101F1001
:204CC0001000000010F02010101010E00000101F10000000101F100000E010101010F010E6
:204CE0000000007D8A8A8A8A9170000000000080E0F8FE0707FEF8E080000000101C1F1FEA
:204D00001F1F1F12121F1F1F1F1F1C1001FF0100000000000000101F1010101010180400AF
:204D200000C0201010101020C0000007081010101008070010F00010F01000F01000000302
:204D40001C0300031C03000000202020202020202000000000000000000000000107798011
:204D6000008079070100000000071C070000000000C0201010101020C000000708101010C9
:204D80001008070000001010FE1010100000000000000F1010080000001C222141414182CB
:204DA0000700001E081010101008070000C0A090909090A0C000000708101010100804001C
:204DC00010F02010101010E00000101F10000000101F100000202020202020202000000015
:204DE000000000000000000001FF21212121F9030400101F1010101010180400001010F084
:204E00004020101030000010101F101000000000001010F04020101030000010101F101064
:204E20000000000001FF4140404041FF0100101F10000000101F100000001013F30000009C
:204E40000000000010101F10100000000000E010101010F0100000609D8A8A8A8A917000AD
:204E600001FF2010101010E00000101F10000000101F100000202020202020202000000074
:204E8000000000000000000001077980008079070100000000071C070000000000001010C6
:204EA000FE1010100000000000000F1010080000102310220021084601F020BC38B50FF2FE
:204EC000701451EA000213D100250CE0012D05D1009400F048F801F011FC04466D1C022D54
:204EE0003FDA002DF2D1009400F005FB0846F2E7C8B1002935D101280AD104F120000090AD
:204F000010231022502001F0F9FB04F1400015E0022826D1009410231022002001F0EEFB99
:204F200004F1600019E0E1B101290DD104F1200000F018F801F0E2FB04F18000009010236E
:204F40001A46002108460AE002290AD1009400F0D2FA01F0D3FB04F1A00000F003F801F012
:204F6000CDFB31BD00901023102200215020704770B582B0044650250E01F6B20EE0102152
:204F800005F1100001F0E1FB009400F0B4FAE8B201F0B4FB103D192001F068FDB542EEDA37
:204FA00073BD2DE9F0411F48B0F91280DFF8180B0078012803D1414600F053FB80460FF2DD
:204FC000700400212046FFF7D3FF4FF47A7798FBF7F6F6B20FF62835012105EB4610FFF7F2
:204FE000C7FF07FB1688642798FBF7F6F6B2022105EB4610FFF7BCFF032107FB16800A2296
:020000040800F2
:2050000090FBF2F0C0B205EB4010FFF7B1FF042105F5D070FFF7ACFF052104F12000BDE8EB
:20502000F041A5E7800200206031002028030020808040402020101008080404FE0000001F
:205040000000010102020404080810103F0000000000FE04040808101020204040808000DD
:2050600000003F10100808040402020101000000008080C0C06060303018180C0CFE0000CD
:20508000000101030306060C0C181830307F00000000FE0C0C181830306060C0C0808000EF
:2050A00000007F303018180C0C060603030101008080C0C0E0E0F0F0F8F8FCFCFE000000AF
:2050C00000000101030307070F0F1F1F3F0000000000FEFCFCF8F8F0F0E0E0C0C080800019
:2050E00000003F1F1F0F0F0707030301010000002DE9F0411318DFF82482DFF8D4198D7847
:205100005DB90125CD7000250D7108254D7100250D704D7001258D7028E0CD7825BB0E7952
:205120004F7906EB000EAE449EF833E005EB080484F8D8E002EB050EC644F4182C1994F8F6
:2051400033408EF8D8406D1CEDB2AF42E9D27D1C4D71761E0E71EDB20B2D05D10A20487170
:2051600000200871012025E00D7925BB0125CE784F7911E006EB050EC6442C1894F8334094
:205180008EF8D84006EB020EAE44C644EC1894F833408EF8D8406D1CEDB2BD42EAD3781E59
:2051A0004871721CCA70C0B228B901204871092008710020C870BDE8F08110B50021002229
:2051C0000123934003405400042AB9BFC4F10704A340E41FE3405918C9B2521C082AEFDB7C
:2051E000084610BD2DE9F44F82B082465FEA0308DFF8DC580AD1287828B900260027012018
:2052000028706E700CE0AE686F6910E0B8F1010F0BD1687830B90026002728700120687012
:20522000AE7004E0EE68AF6901E02E69EF6900249DF80800484340000090DFF8E09008E0E3
:2052400014F80A00FFF7B9FF04EB090181F8D800641C00988442F3D300229DF80800DFF806
:20526000741803E09DF8083002EB4302009B9A422FD200240AE021F81EA031F81EE04FEA03
:205280001E2A83F8D8A08CF8D8E0641C8442E9D21318E31803EB090C02EB040E0EEB090369
:2052A00093F8D8A09CF8D8B04BEA0A2A21F81EA0B8F1010F06D1002E14BF2AFA06FA0AFAD6
:2052C00007FAD8E7002F0CBF0AFA06FA2AFA07FAD1E7002408E004EB090A9AF8D800FFF7C5
:2052E0006CFF8AF8D800641C00988442F3D31FB9102E08D1002610277F1EB8F1000F04D1CF
:20530000AE606F6108E0761CF7E7B8F1010F07BFEE60AF612E61EF61BDE8F78F0000002050
:205320002DE9FD4E81B08946DFF8AC07B0F91210DFF894572878012802D100F092F9014697
:205340000A2091FBF0F109B2642291FBF2F6F6B202FB161393FBF0FA5FFA8AFA02FB1611BA
:2053600000FB1A10C0B200906878012803D1E8610020286206E0022805D10020E8611020B7
:205380002862002068700020A8610FF2747405E0FFF713FF8BF83801781CA861AF69DFF844
:2053A0003CB7B7EB490F1FDABB4404EB4610385CFFF703FF8BF8D80004EB4A10385CFFF709
:2053C000FCFE8BF8F800009804EB4010385CFFF7F4FE8BF818013819297801290CBF90F8FA
:2053E000E00190F8A001D3E79DF80400C0F1030009FB00F04300E869296ADFF8D82601E0CB
:020000040800F2
:2054000003EB4903062606FB09F6B3422BDA002609E022F81E4032F81E703C0A8AF8D8400D
:205420008CF8D870761C4E45EADA03EB090AB2440AEB0B0C03EB060E0EEB0B0A9AF8D840FA
:205440009CF8D87047EA042422F81E409DF8087027B9002914BFCC408440DAE700280CBF32
:205460008C40C440D5E700201AE006EB0B0494F8D800FFF7A2FE84F8D80094F8F800FFF7BE
:205480009CFE84F8F80094F81801FFF796FE84F8180194F83801FFF790FE84F83801701CB0
:2054A000A861AE69B6EB490FDFDB0BF1D8000121A96100F01FF8A8690007000E01F01EF9E4
:2054C000A969491CA9610529F3DBE869296A50EA010202D019B9102804D1002005E0481E12
:2054E000286201E0401CE861012004B0BDE8F08E01EB401000901023102200217047F8B5EE
:2055000004460D46DFF8D8651421304601F07CF80FF6240724B900230A220121384606E0E8
:20552000012C07D101230A22012107F12000FFF759FE06E0022C04D10A2201213846FFF7E4
:20554000D7FD009610230A220021562001F0D6F80FF2CC7400F04AFE042803D104F10C00B2
:20556000009005E0002D06BF07F1140000900094102306220021502001F0C0F8F1BD38B564
:205580000C46451EEDB2082D0BD3002509E03638C0B20FF26C51FFF7ABFF2801FFF719F927
:2055A0006D1C207898B114F8010B202808BF0A20EFD02D2808BF0C20EBD0A0F130010A2979
:2055C00038BF3038E4D3A0F141010629DFD331BDF8B504460D4600260FF604070DE0142171
:2055E00001FB0070009010230A220021F6B20A2000FB0640FFF7EDF8761C287888B115F8C9
:20560000010B432808BF0B20E9D0452808BF0C20E5D0A0F130010A293ABF3038C0B20A2061
:20562000DDE7F1BD38B50446DFF8AC04B0F91450B0F91210DFF89004007801280BD100F08A
:2056400010F8002C0CBF2918411B09B20120BDE83440FEF77DBD0CB9681832BD481B32BD04
:2056600029460020FEF774BD70B504460D46DFF86804B0F91200DFF850140978012902D1FC
:205680000146FFF7EEFF4FF47A7190FBF1F2642390FBF3F6B6B24DB9201890FBF3F390FBA7
:2056A000F1F080B292B2904209D10AE0001B90FBF3F390FBF1F080B292B2904201D00320C9
:2056C00070BD9BB2B34201D0022070BD012070BDF8B5DFF8F443DFF80054B5F914000A2813
:2056E00004BF0120A081DFF8FC63F068002800F08980606938B10020606100F0FCFB01F08B
:205700006BF8FFF74EFC00F0F0FB40282DD0B0F5807F58D16089B5F9121088421EDA01203D
:2057200060700121A88AFFF79FFF074600F06EF80028FBD10120FFF775FF68826089B5F90E
:2057400012108142B8BF68820220607000F05EF80028FBD100210120FFF7B0FBB5F9120034
:20576000618988422FD101212AE0B5F91200218988421FDA012060700021A88AFFF774FF6F
:205780000746002200F043F80028FAD1FFF74AFF68822089B5F912108842B8BF688202208D
:2057A0006070002200F033F80028FAD100210220FFF784FBB5F912002189884203D1022106
:2057C0000020FFF77BFB40F2051700F08EFB80B1A08940B1F168B94205D3322141430A31ED
:2057E000A982401CA0814FF49670F060002000F07FFBA08930B1F068B84203D20A20A88259
:020000040800F2
:205800000120A081F1BD00009031002001221021384685E52DE9F0474FF00A09B14EAA4CE7
:20582000AD4F00F0E3FC401E072869D8DFE810F00800C5004400F700910094004901E700AA
:205840006069012801D100F057F9207940B900F0DAFF00213846FEF7E1FE0120207107E0DD
:20586000B06928B9706918B1FEF7DFFC3220B061706978B9608A401C608280B2322805D1C5
:20588000208A411E2182C0B200F0ECFE208A08B900F0FCFE01F017FB012803D000F025FBAC
:2058A00000282DD0F86970613320208200F0DAFEBDE8F04700F0E4BE606928B901206061DA
:2058C00000F019FB00F088FF00F098FC8046E078B8F1010F06D008B100F07EFF0020E08175
:2058E000E07023E0E1894B2908BF002804D100F073FF0120E07000E0C0B1B06908B1306825
:20590000DFE000F07FFC0546B7F912A02078012806D1FFF7A5FE05465146FFF7A2FE82463F
:2059200051462846FEF7C4FF3220B0613068002804BFE0780028E3D100F064FC0546B7F945
:205940001200A842B4BF291A411B122900DA0546A6E0BDE8F047BBE66069012801D100F022
:20596000CBF800F0C2FA48F24001401A07D0C03802D0403806D007E0012060710BE002200E
:2059800060710DE0607101E0607910B9FEF724FF0AE0012802D100F036FF05E0022803D1EF
:2059A00001213846FEF73AFE6079032804D0002000F09EFA0320607183E0606910B9012090
:2059C00000F09BF8484F387828B1FFF725F80020387000F001FFB069002872D100F088FB62
:2059E00005462078012802D1FFF73AFE054600F07DF836A10620FFF7C2FD14200DE060694E
:205A000010B9012000F079F86069012804BFB069002856D1FFF7E4F83220B06151E000F0C8
:205A2000F1FB0546B7F91000A842B4BF291A411B1329B8BF054600F0E1FB8046E078B8F1E2
:205A4000010F06D008B100F0C7FE0020E081E07020E0E189322908BF002804D100F0BCFEEE
:205A60000120E07000E0A8B1B06900287FF447AFB7F910A02078012806D1FFF7F1FD0546AB
:205A80005146FFF7EEFD824651462846FEF710FF3220B0613068002804BFE078002810D176
:205AA0002078012802D1FFF7DBFD054600F01EF801F006FA01464046FFF721FDE089401C9C
:205AC000E081BDE8F0870000280300204600000070030020A02E0020800200200000002075
:205AE000D8000020D83000202804002095FBF9F109B20120FEF75BBB0020606100F06CBEDE
:205B0000000000F8FE0301010103FEFCF00000000000003F7FE0808080C07F3F07000000F9
:205B200000000008040406FFFF0000000000000000000000808080FFFF8080800000000053
:205B4000000000060701010181C37F3E00000000000000E0F0D8CCC6C3C0C0E000000000D7
:205B60000000000607818181C1633F1E00000000000000E0C080808181C37F3E00000000F2
:205B800000000000C060380CFFFF0000000000000000060705040484FFFFC48406000000B9
:205BA000000000FFFF8383838383830300000000000000E0C080808080C17F3F08000000AB
:205BC000000000E0F89C8EC2C3C18181000000000000003F7FC080808080C17F3F0000007E
:205BE0000000000F0303030383E33B0F030000000000000080E0781E0701000000000000D9
:020000040800F2
:205C00000000187E7EC381818181677E3C00000000001C7EFFC180808081E37F3C0000008F
:205C2000000078FEC603010101039EFCF000000000000001018383C361713F0F01000000A9
:205C4000000000000000000000000000000000000000000000000000000000000000000044
:205C60000000000000000000F00000000000000000000101010101011F0101010101010009
:205C80000000000000000000000000000000000000010101010101010101010101010100F6
:205CA0000E11110EE0F80C060301010101021E00000000000F3F70C0808080808040200037
:205CC000000000000000C0C0C0C00000000000000000000000003030303000000000000004
:205CE00008142214080202FE06020202C202061E00000000008080FF81810101030000004E
:205D0000C03008040402FAAAFA0204040830C0000718204058A4DBDEDBA458402018070057
:205D200000F0FEFFF000007F7F7F7F00FF0FE1E00FFFFF80BFBF80FF10188CC66363C68C9F
:205D40001810426331180C0C1831634200F01E1FF00000FF8080FF0042C68C183030188C5C
:205D6000C64208183163C6C6633118088C8CC6C68C8CC6C68C8C3131181831311818313141
:205D8000008C8C8C8C8C8C8C8C8C8C8C8C8C8C0000313131313131313131313131313100AD
:205DA00080C0603098CC66333366CC983060C08088CC6633190C060303060C193366CC8813
:205DC000113366CC983060C0C0603098CC6633110103060C193366CCCC6633190C060301DF
:205DE00000E0180404040418E000000F3040404040300F0000000808FC0000000000000019
:205E000040407F4040000000007804040404048870000060504844424140700000380404D0
:205E20008484C830000000384040404040211E00000080601008FE0000000007040444441E
:205E40007F4444000000FC0484848404040000384141404040211E0000C0308884848404E6
:205E60001800000F3140404040211E00001C04048444340C04000000007E010000000000DC
:205E800000708804040404887000001C2241414141221C0000F0080404040418E000003052
:205EA000414242422219070000000000000000000000000000000000000000001C1CC03071
:205EC000080404040830000007182040404020101C120C0202FE8282E20200000000407F64
:205EE00040000300AA4800787047AA4840687047A84948607047A74908707047A4484078DA
:205F0000704770B5044600250A26A34801F02CF94519761EF9D10A20B5FBF0F19C4A40F672
:205F20006373994203D304205070002070BD48439021B0FBF1F100200FF2A82333F8105069
:205F4000A942D56808D2401C042805D20228F5D1002CF3D0A942F6D3401C70BD00208F49CC
:205F60000A68D243920548BF4FF480700968C943490648BF40F0400090B186490A78012AC9
:205F800004BFCA68824207D18A68521C8A60162A06D340F4004002E000228A60C8604860DB
:205FA000704770B57E494A68D3089CB2C5000E781EB94D600120087009E0844234BF041B3A
:205FC000241AA4B23D2C3CBF8018C51A4D60E80870BD38B5002000F03CFD72481021016006
:205FE000192000F047FD704D0A2021E0002000F02BFD69684118AA68824238BF0246AA60CB
:020000040800F2
:20600000EA68904288BF1046E860288801280CD1A868081AE968401AC008FFF7C2FF04461B
:20602000002141F28830E860A96069602888401E288028880028D9D1204632BD5B490A7887
:2060400022B9C000486001220A7007E04A688018931002EB5372A0EBE2004860811000EB49
:206060005170C010704738B500254F4C0A2026E0012000F0E9FC216941186269824238BF9C
:2060800002466261A269904288BF1046A0612088012811D16069081AA169401AC008FFF7BA
:2060A000CDFF40F6E4414843000BA0F5FA75002141F28830A061616121612088401E208028
:2060C00020880028D4D1284632BD10B5FFF781FF0446FFF7C8FF2E49B4F5C87F05D2B0F5C9
:2060E000967F02DA8C60012000E00220087010BD70B50446FFF76DFF0546FFF7B4FF244929
:206100004A8840F6FF739D4202D18B885B1C07E00023A5F6D966B6F5937F34BF521C0022A5
:206120004A808B808A884B883C2A02D353B9032207E01AB90A2B28BF022202D20A2B01D263
:2061400001224A70A4F57A7296235A4340F6B83392FBF3F250328968B4F57A7F08BF0A3AD4
:2061600000D01CB18B18AB42B8BFAD1AB0F5C87FC8BF4FF4C87040F22632691A4FF47A7389
:20618000504303FB010090FBF2F000B270BD0000280400201C3100200028014008080140AE
:2061A00050310020140C0140900300205831002010B5044645F2555000F0E4FF032000F0B0
:2061C000E4FF0A2060434003000C00F0E1FF00F0E2FF00F0E5FF012010BD80B500F0DBFF5E
:2061E000012002BD2C0196005A002800DFF8B00300787047DFF8A81308707047DFF8A00386
:20620000808B7047DFF89803B0F91E00704720220FF2D431DFF88C0300F0CEBFDFF8800347
:2062200000218180C180018141818161C1600F2101820221418201218182704730B5002238
:20624000DFF85C13C880B1F904300446181B08818D6900B2B0F5FA7FBCBF01224519A34225
:2062600005DAE31A1BB2152BA4BF002500228D611F28B4BF002301230C8A4D8A6A438D698C
:206280006A4300FB04228C8AB1F90A50451B6C4303FB04224881012AB8BF002205DB41F243
:2062A00071708242A8BF41F27072CA6090B230BDBB4A9180884204DA091A122904DB002148
:2062C00005E0411A132901DA022100E001219183B4E770B5B44CB24D287801280ED002289E
:2062E00000F0FC80032849D0042800F09880052800F0E380082800F0208170BDFFF7F5FD64
:20630000402811D0B0F5807F18D16878012817D000F05DF9042811DA0320287000202884D3
:206320002060A061606109E06878012808D0022028700020A0610120FFF7DDFD687820B1D4
:20634000E06910B96870FFF7D3FD00F040F940B9FDF7EEFE012804BF0020FDF7EDFE082078
:206360002870A878042818BF012806D0286C60610020FFF7BDFD0120A87070BDFFF7B5FD30
:2063800048F24001401A04D0C03802D040380AD00FE000F016F905202870002060604FF46A
:2063A000FA70E06005E000F054FB00F00DF900F011F900F00CF9042805DB00F002F900F043
:2063C00003F900F007F9B5F93660606848B93046FFF78EFE00F0F0F800B200F03AFB1E20DF
:2063E000606000F03AFB00B9606000F06CFD98B9288C18B901202884E86BA060A0680028C0
:020000040800F2
:206400004DD1A883A06100F024FB0020FFF770FD286C6061042041E0002028843FE0B5F96D
:206420003460B5F93610B142B8BF0E46606848B93046FFF75DFE00F0BFF800B200F009FB39
:206440001E20606000F0C3F804280DDB00F0B9F800F0BAF801202870286C60610420A870F2
:20646000012068703220E061606958B900F0F1FA00F0AAF801206870C820E0610420A870EB
:206480000120287000F01FFD012802D0FFF72DFD28B10020A0616061288403202870FFF704
:2064A0002DFD02287BD3FDF743FE012804BF0020FDF742FE0820287070BDE06800286ED129
:2064C0003A4E0120307001F044F801F095F800203070032028700020206070BDE06920B166
:2064E0000020BDE87040FFF703BDFFF7FEFC48F24001401A12D0C03810D040380BD1FFF7A8
:20650000E4FDFFF7EFFC012803D101F022F801F073F8C820E061E878002840D00020E8701C
:2065200000F097FA012028700220A8700120687000F04AF83220E06170BDFFF7DFFC801E8D
:20654000012803D9801E01280FD921E0B5F93600FFF7CEFDE883FFF7D1FC012818D103207E
:2065600028700020FDF7E8FD12E000F030F801280EDB00F02CF804280ADA00F022F800F050
:2065800023F8012068700220A061A87001202870074820B100F015F806481021016070BDC9
:2065A0005C02002080020020D8300020280400205B6A0008140C0140E8833146B5F91E006B
:2065C00076E6002000F045BA0020FFF794BC0120FFF797BC012028700320A8700120687093
:2065E0003220E06170470000322E3132000000000000000000000000D007B80B6400000090
:2066000050460000A08C0000002201F0BDBD50F8041B61B150F8042BD30744BFA9F10103C0
:206620009A18002342F8043B091FFAD1EFE770470CB41CB5044604A80190009401AB0A46E4
:2066400000A907487844183001F0B8FD009900220A7000285CBF0098001B16BC5DF80CFB3F
:20666000CF0B000080B500A90FF2F42213680B608DF803003C22042100A802F0F3FC01BD13
:2066800000B583B000A80FF2DC2104E000B583B000A80FF2D8210CC90CC03C22062100A830
:2066A00002F0E0FC07BD10B5A0B00C4640218DF80010411CC9B2012000AA03E014F8013B1D
:2066C0008354401C8842F9DB3C2200A802F0CAFC204620B010BD30B583B000AA0FF29423AE
:2066E00030CB30C220308DF8050000A84278891841703C22082102F0B5FC37BD2DE9F041BA
:20670000044690465818C0B2CE080722114218BF761C811000EB5171CA10B0EBC2011ABF6D
:20672000501CC5B2D5B2069F09E031462046FFF7D2FF39464046FFF7B6FF0746761CF6B286
:20674000AE42F2DB3846BDE8F08130B5A1B004460D4601A8FFF758FF00F051F82A46002155
:20676000E0B2FFF7CBFF00F04AF82A460821E0B2FFF7C4FF21B030BD80B54FF48070ADF8E6
:20678000000003208DF8020010208DF8030000A90E4802F0A3FC01BD10B50D4C4FF48071F7
:2067A000204602F002FD022000F060F94FF48071204602F0F8FC022000F058F93C222E2187
:2067C0000448BDE8104002F04DBC0000000C014000080140A002002000B5A1B0802101A8D5
:2067E000FFF712FF00F00BF8802200F0B5F800F006F88022194600F0B0F821B000BD01A8A2
:020000040800F2
:206800000090082370472DE9F041A2B00125002201A90FF2681000F0BCFE040000F07F8065
:206820002078422804BF60784D2840F0878094F83600FF2804BF94F83700FF2804D194F818
:206840003800FF2808BF002500F081F801260F27002000210C2202FB0712121992F83E208F
:2068600080234FF0080C03EA020E1DB1BEF1000F0CD102E0BEF1000F08D00DF1080E864466
:206880009EF8018046EA08088EF8018000F059F8E9D1491C0C29DDD37606360E7F1E082FC1
:2068A000D6DA02A800900823602200F055F8FFF794FC00F04CF801260027002000216FF05C
:2068C0000B0202FB0712121992F8922080234FF0080C03EA020E1DB1BEF1000F0CD102E0F0
:2068E000BEF1000F08D00DF1080E86449EF8018046EA08088EF8018000F023F8E9D1491C9C
:206900000C29DCD37606360E7F1C082FD5DB02A8009008236022082100F01FF808E00FF251
:20692000680000901023602200210020FFF7E6FE4FF47A7000F09AF8FFF74FFC22B0BDE828
:20694000F081401CC0B25B08BCF1010C70477F210DF1090002F056BC00210020CEE6000084
:2069600080818000808D801480AF0000808D801080AE000080B080218020807F4C4F474F5A
:20698000494E2020424D500000000000000000000000000000000000000000000000000041
:2069A00080C0E0F0F8FCFEFEFCF8F0E0C080C0E0F0F8FCFEFEFEFC783080C0C000189CCE2F
:2069C000E6F0F8FCFEFEFCF8F0E0C0E0F0F87C000000000000000000000000000000000029
:2069E000000000000000000000000000000000000000000000000000000000000000001F78
:206A00000F07030103070F1F3F7F7F3F1F0F07030103070703191C0E6773391C0E070301D0
:206A200003070F1F3F7F7F3F1F0F0703010000000000000000000000000000000000000069
:206A40000000000000000000DFF8281431F810007047DFF82414C8607047DFF81C04C06826
:206A600070472021DFF8140402F0CCBBDFF80814142202E0DFF800140A2250438860886829
:206A80000028FCD17047DFF8F8134FF400620A614FF480520A61002808680AD120F44040D1
:206AA00040F440500860086820F4402040F4403009E020F4804040F430400860086820F4D5
:206AC000802040F430200860704780B502F09EFB102002F05FFC012002F056FCDFF8A40353
:206AE0004168DFF8A42311434160016841F080710160012002F0A3FB012002F0A3FB3920B3
:206B000002F011FC0028FAD0022002F09EFB02F0A3FB0828FBD10121172002F0E0FB012103
:206B200040F20C6002F0E4FB0121032002F0E9FB0120BDE8024002F094BB80B501464FF0C7
:206B4000006002F0DAFC4FF4A06002F0A5FC14208DF8000002208DF8010000208DF802002F
:206B600001208DF8030000A802F09BFC01BD38B5C64C4FF6FF70E060C5492160C54961602C
:206B8000C54DE860C54828604FF0883068608020ADF80000002000F01FF84FF4807000F0B8
:206BA00021F80121BE4802F002FB102000F01AF80120ADF80000002000F01AF80220ADF8C4
:206BC0000000002000F014F84FF41070ADF80000482000F001F831BD8DF8030000A920465B
:206BE00002F07CBAADF8000003208DF8020010208DF8030000A9284602F070BA2DE9F041EC
:020000040800F2
:206C000090B04FF420442546A64E304602F08AFCA5480590974806900020079002200890D8
:206C20000020099080200A904FF480700B904FF480600C9020200D904FF400500E900020A6
:206C40000F9005A9304602F0BAFC0121304602F0D1FC964E304600F0DBF900F05FF84FF4CA
:206C6000602702970020039002208DF8100000A9304600F0F6F9DFF83882404600F0C8F9C4
:206C800000F04CF802970020039001208DF8100000A9404600F0E5F90723022207213046D5
:206CA00000F023FA072301220821304600F01DFA052301220921404600F017FA0121304640
:206CC00000F0F6F90121304600F0E9F90121404600F0E5F9304600F0F4F9304600F0F6F94D
:206CE00020B12846451E0028F7D114E0404600F0E8F92546404600F0E9F920B12846451E52
:206D00000028F7D107E00121304600F0E5F90121404600F0E1F910B0BDE8F081002000903E
:206D200001208DF804008DF80500704700B585B04FF4E06002F0B0FB2F20ADF8040042F232
:206D40000F70ADF808000020ADF80A00ADF8060001A94FF0804002F073FC00F061F802F048
:206D6000C5FC012200F05CF802F0B8FC00F058F802F0AAFC1C2000F02AF805B000BD1FB5D9
:206D80004FF4E06002F088FB2F20ADF804003120ADF808004FF48070ADF80A000020ADF85E
:206DA0000600444C01A9204602F04AFC0121204602F09CFC01220121204602F08FFC012199
:206DC000204602F081FC1D2000F001F81FBD8DF8000000208DF8010001208DF802008DF884
:206DE000030000A802F05DBB80B500F019F802F087FC0020304901EB8002536813B15368F2
:206E00005B1E5360401C0828F5DB0878401C08700321084204BFBDE80140FFF79FB801BD74
:206E200001214FF08040704780B50121214802F067FC1148416811B14168491E4160816807
:206E400011B18168491E8160C16802781B4B49B1C168491EC160002A19BF1021596010216E
:206E60001960D243C16811B9102159600022027001BD0000783100200C310020D830002007
:206E800004080140001002400A846800000801408888880883B8BB8B000C01400088834457
:206EA00000013000080002404C240140002401400028014000040040D4300020100C014013
:206EC0005148C089704751480088704700B585B08DF800008DF801101D22022100A802F040
:206EE000C1F80DE000B585B08DF8000003461D22012100A802F0CBF843489DF800100173D2
:206F0000012005B000BD80B500212A20FFF7DEFF02210E20FFF7DAFF03212A20FFF7D6FF12
:206F200000212B20FFF7D2FF01212A20BDE80440CCE770B51C460023002500F11006964268
:206F4000A6BFA0F11006B242012301F11006A642A6BFA1F11006B442012300F12006964207
:206F6000A6BF20388242012501F12000A042A6BFA1F120008442012524480580184670BDF7
:206F800021480178407802E01F480179407940EA01200009802903D3C043401C0005000D97
:206FA000704730B583B0184C06212046FFF72CFB0020FFF797FFE8B1207B00071AD50120FD
:206FC000FFF790FFB0B1207B8DF80000207000A8417861709DF8021021719DF80310617136
:206FE0000179217240796072FFF7CAFF0546FFF7CBFF00E0258A00232A460021208AFFF74C
:020000040800F2
:2070000098FFE081258237BDF83000200A31002080B55749884208D101214FF4007002F0FB
:2070200079F900214FF4007016E05249884208D101214FF4806002F06DF900214FF48060F5
:207040000AE04D4988420BD101214FF4004002F061F900214FF40040BDE8044002F05AB987
:2070600001BD4268454B1A400B681A430B7942EA032242608268424B1A40CB681A438B6823
:207080001A434B7942EA43028260C26A22F47002097C491EC9B242EA0151C16270470029E0
:2070A000816812BF41F0010149084900816070470029816814BF41F4807121F480718160BF
:2070C0007047816841F00801816070478068C008FFE700F0010070470029816814BF41F4E6
:2070E000A00121F4A0018160704770B507240A290BD3A1F10A0505EB4505C668AC4026EA3B
:207100000404AB402343C36008E001EB41050669AC4026EA0404AB40234303611F23072A3E
:207120000AD2521E02EB8202446B934024EA030391401943416370BD0D2A0AD2D21F02EB0D
:207140008202046B934024EA030391401943016370BD0D3A02EB8202C46A934024EA0303CA
:2071600091401943C16270BDC06C80B2704700000024014000280140003C0140FFFEF0FF46
:20718000FDF7F1FF09490860704709490860704708490860704705484AF6AA210160704749
:2071A00002484CF6CC4101607047000000300040043000400830004062B38B0708D0521ED3
:2071C00011F8013B00F8013B00F024808B07F6D1830740F0208000BF103A07D330B4B1E88F
:2071E0003810103AA0E83810F9D230BC530724BFB1E80810A0E8081044BF51F8043B40F825
:20720000043BD20724BF31F8022B20F8022B44BF0B7803707047083A07D3B1E80810083A19
:2072200040F8043B40F804CBF7D25307E4E70268531C03601170704770470000F8B5642482
:20724000DFF8742C0A23072911D8DFE801F0041123588090C5CC017845785D4304FB015161
:207260008078401841F2D041401A58431082F1BDDFF8481C09780029F9D1017845785D43C0
:2072800004FB01518078401841F2D041401A58435082F1BDC17846788578A1F1300C5FFA79
:2072A0008CFCBCF10A0F0CD200784FF47A77664307FB006003FB0500081800F53C57B03759
